{
  "_format": "hh-sol-artifact-1",
  "contractName": "Auction",
  "sourceName": "contracts/Auction.sol",
  "abi": [
    {
      "inputs": [
        {
          "internalType": "address",
          "name": "_admin",
          "type": "address"
        },
        {
          "internalType": "address",
          "name": "_artist",
          "type": "address"
        },
        {
          "internalType": "uint256",
          "name": "_endTime",
          "type": "uint256"
        },
        {
          "internalType": "uint256",
          "name": "_minIncrement",
          "type": "uint256"
        },
        {
          "internalType": "uint256",
          "name": "_directBuyPrice",
          "type": "uint256"
        },
        {
          "internalType": "uint256",
          "name": "_startPrice",
          "type": "uint256"
        },
        {
          "internalType": "address",
          "name": "_nftAddress",
          "type": "address"
        },
        {
          "internalType": "uint256",
          "name": "_itemId",
          "type": "uint256"
        },
        {
          "internalType": "contract NFTMarket",
          "name": "_market",
          "type": "address"
        }
      ],
      "stateMutability": "nonpayable",
      "type": "constructor"
    },
    {
      "anonymous": false,
      "inputs": [],
      "name": "AuctionCanceled",
      "type": "event"
    },
    {
      "anonymous": false,
      "inputs": [
        {
          "indexed": false,
          "internalType": "address",
          "name": "bidder",
          "type": "address"
        },
        {
          "indexed": false,
          "internalType": "uint256",
          "name": "bid",
          "type": "uint256"
        }
      ],
      "name": "NewBid",
      "type": "event"
    },
    {
      "anonymous": false,
      "inputs": [
        {
          "indexed": false,
          "internalType": "address",
          "name": "withdrawer",
          "type": "address"
        },
        {
          "indexed": false,
          "internalType": "uint256",
          "name": "amount",
          "type": "uint256"
        }
      ],
      "name": "WithdrawFunds",
      "type": "event"
    },
    {
      "anonymous": false,
      "inputs": [
        {
          "indexed": false,
          "internalType": "address",
          "name": "withdrawer",
          "type": "address"
        }
      ],
      "name": "WithdrawNFT",
      "type": "event"
    },
    {
      "inputs": [],
      "name": "admin",
      "outputs": [
        {
          "internalType": "address payable",
          "name": "",
          "type": "address"
        }
      ],
      "stateMutability": "view",
      "type": "function"
    },
    {
      "inputs": [],
      "name": "allBids",
      "outputs": [
        {
          "internalType": "address[]",
          "name": "",
          "type": "address[]"
        },
        {
          "internalType": "uint256[]",
          "name": "",
          "type": "uint256[]"
        }
      ],
      "stateMutability": "view",
      "type": "function"
    },
    {
      "inputs": [],
      "name": "artist",
      "outputs": [
        {
          "internalType": "address payable",
          "name": "",
          "type": "address"
        }
      ],
      "stateMutability": "view",
      "type": "function"
    },
    {
      "inputs": [
        {
          "internalType": "uint256",
          "name": "",
          "type": "uint256"
        }
      ],
      "name": "bids",
      "outputs": [
        {
          "internalType": "address",
          "name": "sender",
          "type": "address"
        },
        {
          "internalType": "uint256",
          "name": "bid",
          "type": "uint256"
        }
      ],
      "stateMutability": "view",
      "type": "function"
    },
    {
      "inputs": [],
      "name": "cancelAuction",
      "outputs": [
        {
          "internalType": "bool",
          "name": "",
          "type": "bool"
        }
      ],
      "stateMutability": "nonpayable",
      "type": "function"
    },
    {
      "inputs": [],
      "name": "directBuyPrice",
      "outputs": [
        {
          "internalType": "uint256",
          "name": "",
          "type": "uint256"
        }
      ],
      "stateMutability": "view",
      "type": "function"
    },
    {
      "inputs": [],
      "name": "endTime",
      "outputs": [
        {
          "internalType": "uint256",
          "name": "",
          "type": "uint256"
        }
      ],
      "stateMutability": "view",
      "type": "function"
    },
    {
      "inputs": [],
      "name": "getAuctionState",
      "outputs": [
        {
          "internalType": "enum Auction.AuctionState",
          "name": "",
          "type": "uint8"
        }
      ],
      "stateMutability": "view",
      "type": "function"
    },
    {
      "inputs": [],
      "name": "getRefunds",
      "outputs": [
        {
          "internalType": "bool",
          "name": "",
          "type": "bool"
        }
      ],
      "stateMutability": "nonpayable",
      "type": "function"
    },
    {
      "inputs": [],
      "name": "isCancelled",
      "outputs": [
        {
          "internalType": "bool",
          "name": "",
          "type": "bool"
        }
      ],
      "stateMutability": "view",
      "type": "function"
    },
    {
      "inputs": [],
      "name": "isDirectBuy",
      "outputs": [
        {
          "internalType": "bool",
          "name": "",
          "type": "bool"
        }
      ],
      "stateMutability": "view",
      "type": "function"
    },
    {
      "inputs": [],
      "name": "itemId",
      "outputs": [
        {
          "internalType": "uint256",
          "name": "",
          "type": "uint256"
        }
      ],
      "stateMutability": "view",
      "type": "function"
    },
    {
      "inputs": [],
      "name": "market",
      "outputs": [
        {
          "internalType": "contract NFTMarket",
          "name": "",
          "type": "address"
        }
      ],
      "stateMutability": "view",
      "type": "function"
    },
    {
      "inputs": [],
      "name": "maxBid",
      "outputs": [
        {
          "internalType": "uint256",
          "name": "",
          "type": "uint256"
        }
      ],
      "stateMutability": "view",
      "type": "function"
    },
    {
      "inputs": [],
      "name": "maxBidder",
      "outputs": [
        {
          "internalType": "address",
          "name": "",
          "type": "address"
        }
      ],
      "stateMutability": "view",
      "type": "function"
    },
    {
      "inputs": [],
      "name": "minIncrement",
      "outputs": [
        {
          "internalType": "uint256",
          "name": "",
          "type": "uint256"
        }
      ],
      "stateMutability": "view",
      "type": "function"
    },
    {
      "inputs": [],
      "name": "nftAddress",
      "outputs": [
        {
          "internalType": "address",
          "name": "",
          "type": "address"
        }
      ],
      "stateMutability": "view",
      "type": "function"
    },
    {
      "inputs": [],
      "name": "placeBid",
      "outputs": [
        {
          "internalType": "bool",
          "name": "",
          "type": "bool"
        }
      ],
      "stateMutability": "payable",
      "type": "function"
    },
    {
      "inputs": [
        {
          "internalType": "address",
          "name": "",
          "type": "address"
        }
      ],
      "name": "refunds",
      "outputs": [
        {
          "internalType": "uint256",
          "name": "",
          "type": "uint256"
        }
      ],
      "stateMutability": "view",
      "type": "function"
    },
    {
      "inputs": [],
      "name": "shareOfArtist",
      "outputs": [
        {
          "internalType": "uint256",
          "name": "",
          "type": "uint256"
        }
      ],
      "stateMutability": "view",
      "type": "function"
    },
    {
      "inputs": [],
      "name": "startPrice",
      "outputs": [
        {
          "internalType": "uint256",
          "name": "",
          "type": "uint256"
        }
      ],
      "stateMutability": "view",
      "type": "function"
    },
    {
      "inputs": [],
      "name": "startTime",
      "outputs": [
        {
          "internalType": "uint256",
          "name": "",
          "type": "uint256"
        }
      ],
      "stateMutability": "view",
      "type": "function"
    },
    {
      "inputs": [],
      "name": "withdrawFunds",
      "outputs": [
        {
          "internalType": "bool",
          "name": "",
          "type": "bool"
        }
      ],
      "stateMutability": "nonpayable",
      "type": "function"
    },
    {
      "inputs": [],
      "name": "withdrawNFT",
      "outputs": [
        {
          "internalType": "bool",
          "name": "",
          "type": "bool"
        }
      ],
      "stateMutability": "nonpayable",
      "type": "function"
    },
    {
      "inputs": [],
      "name": "withdrawnNFT",
      "outputs": [
        {
          "internalType": "bool",
          "name": "",
          "type": "bool"
        }
      ],
      "stateMutability": "view",
      "type": "function"
    }
  ],
  "bytecode": "0x60806040523480156200001157600080fd5b50604051620027f7380380620027f7833981810160405281019062000037919062000217565b600160008190555088600660006101000a81548173ffffffffffffffffffffffffffffffffffffffff021916908373ffffffffffffffffffffffffffffffffffffffff16021790555087600560006101000a81548173ffffffffffffffffffffffffffffffffffffffff021916908373ffffffffffffffffffffffffffffffffffffffff1602179055508642620000cf9190620002f0565b6001819055504260028190555085600b8190555084600c8190555083600d8190555082600e60006101000a81548173ffffffffffffffffffffffffffffffffffffffff021916908373ffffffffffffffffffffffffffffffffffffffff1602179055508160098190555087600460006101000a81548173ffffffffffffffffffffffffffffffffffffffff021916908373ffffffffffffffffffffffffffffffffffffffff16021790555080601060006101000a81548173ffffffffffffffffffffffffffffffffffffffff021916908373ffffffffffffffffffffffffffffffffffffffff160217905550600a6007819055505050505050505050506200041c565b600081519050620001e381620003ce565b92915050565b600081519050620001fa81620003e8565b92915050565b600081519050620002118162000402565b92915050565b60008060008060008060008060006101208a8c0312156200023757600080fd5b6000620002478c828d01620001d2565b99505060206200025a8c828d01620001d2565b98505060406200026d8c828d0162000200565b9750506060620002808c828d0162000200565b9650506080620002938c828d0162000200565b95505060a0620002a68c828d0162000200565b94505060c0620002b98c828d01620001d2565b93505060e0620002cc8c828d0162000200565b925050610100620002e08c828d01620001e9565b9150509295985092959850929598565b6000620002fd8262000395565b91506200030a8362000395565b9250827fffffffffffffffffffffffffffffffffffffffffffffffffffffffffffffffff038211156200034257620003416200039f565b5b828201905092915050565b60006200035a8262000375565b9050919050565b60006200036e826200034d565b9050919050565b600073ffffffffffffffffffffffffffffffffffffffff82169050919050565b6000819050919050565b7f4e487b7100000000000000000000000000000000000000000000000000000000600052601160045260246000fd5b620003d9816200034d565b8114620003e557600080fd5b50565b620003f38162000361565b8114620003ff57600080fd5b50565b6200040d8162000395565b81146200041957600080fd5b50565b6123cb806200042c6000396000f3fe6080604052600436106101665760003560e01c806378e97925116100d1578063b5bc95911161008a578063ecfc7ecc11610064578063ecfc7ecc14610518578063f1a9af8914610536578063f851a44014610561578063f9381d531461058c57610166565b8063b5bc959114610485578063bc3da535146104b0578063ca6158cb146104ed57610166565b806378e979251461038357806380135ae7146103ae57806380f55605146103d95780638afcb14d146104045780638fa8b7901461042f57806395ee12211461045a57610166565b80635bf8633a116101235780635bf8633a146102815780635e38c954146102ac578063618042f0146102d75780636cc6715114610302578063700cdab11461032d57806374b11d8a1461035857610166565b806308bfc3001461016b57806324600fc3146101965780633197cbb6146101c157806343bc1612146101ec5780634423c5f1146102175780634f50ef5314610255575b600080fd5b34801561017757600080fd5b506101806105b7565b60405161018d9190611f71565b60405180910390f35b3480156101a257600080fd5b506101ab61060f565b6040516101b89190611f3b565b60405180910390f35b3480156101cd57600080fd5b506101d6610a85565b6040516101e39190611fac565b60405180910390f35b3480156101f857600080fd5b50610201610a8b565b60405161020e9190611e52565b60405180910390f35b34801561022357600080fd5b5061023e60048036038101906102399190611c78565b610ab1565b60405161024c929190611e6d565b60405180910390f35b34801561026157600080fd5b5061026a610b05565b604051610278929190611f04565b60405180910390f35b34801561028d57600080fd5b50610296610d98565b6040516102a39190611e37565b60405180910390f35b3480156102b857600080fd5b506102c1610dbe565b6040516102ce9190611f3b565b60405180910390f35b3480156102e357600080fd5b506102ec6110c7565b6040516102f99190611fac565b60405180910390f35b34801561030e57600080fd5b506103176110cd565b6040516103249190611f3b565b60405180910390f35b34801561033957600080fd5b506103426110e0565b60405161034f9190611fac565b60405180910390f35b34801561036457600080fd5b5061036d6110e6565b60405161037a9190611fac565b60405180910390f35b34801561038f57600080fd5b506103986110ec565b6040516103a59190611fac565b60405180910390f35b3480156103ba57600080fd5b506103c36110f2565b6040516103d09190611f3b565b60405180910390f35b3480156103e557600080fd5b506103ee6113ef565b6040516103fb9190611f56565b60405180910390f35b34801561041057600080fd5b50610419611415565b6040516104269190611fac565b60405180910390f35b34801561043b57600080fd5b5061044461141b565b6040516104519190611f3b565b60405180910390f35b34801561046657600080fd5b5061046f611685565b60405161047c9190611f3b565b60405180910390f35b34801561049157600080fd5b5061049a611698565b6040516104a79190611e37565b60405180910390f35b3480156104bc57600080fd5b506104d760048036038101906104d29190611be9565b6116be565b6040516104e49190611fac565b60405180910390f35b3480156104f957600080fd5b506105026116d6565b60405161050f9190611fac565b60405180910390f35b6105206116dc565b60405161052d9190611f3b565b60405180910390f35b34801561054257600080fd5b5061054b611a7b565b6040516105589190611fac565b60405180910390f35b34801561056d57600080fd5b50610576611a81565b6040516105839190611e52565b60405180910390f35b34801561059857600080fd5b506105a1611aa7565b6040516105ae9190611f3b565b60405180910390f35b6000600a60009054906101000a900460ff16156105d7576001905061060c565b600a60019054906101000a900460ff16156105f5576003905061060c565b6001544210610607576002905061060c565b600090505b90565b600060026000541415610657576040517f08c379a000000000000000000000000000000000000000000000000000000000815260040161064e90611f8c565b60405180910390fd5b600260008190555060026003811115610699577f4e487b7100000000000000000000000000000000000000000000000000000000600052602160045260246000fd5b6106a16105b7565b60038111156106d9577f4e487b7100000000000000000000000000000000000000000000000000000000600052602160045260246000fd5b148061075b5750600380811115610719577f4e487b7100000000000000000000000000000000000000000000000000000000600052602160045260246000fd5b6107216105b7565b6003811115610759577f4e487b7100000000000000000000000000000000000000000000000000000000600052602160045260246000fd5b145b61076457600080fd5b600660009054906101000a900473ffffffffffffffffffffffffffffffffffffffff1673ffffffffffffffffffffffffffffffffffffffff163373ffffffffffffffffffffffffffffffffffffffff16148061080d5750600560009054906101000a900473ffffffffffffffffffffffffffffffffffffffff1673ffffffffffffffffffffffffffffffffffffffff163373ffffffffffffffffffffffffffffffffffffffff16145b61081657600080fd5b600080600e60009054906101000a900473ffffffffffffffffffffffffffffffffffffffff1673ffffffffffffffffffffffffffffffffffffffff16632a55205a601060009054906101000a900473ffffffffffffffffffffffffffffffffffffffff1673ffffffffffffffffffffffffffffffffffffffff166353dbceb16009546040518263ffffffff1660e01b81526004016108b49190611fac565b6101006040518083038186803b1580156108cd57600080fd5b505afa1580156108e1573d6000803e3d6000fd5b505050506040513d601f19601f820116820180604052508101906109059190611c4e565b604001516003546040518363ffffffff1660e01b8152600401610929929190611fc7565b604080518083038186803b15801561094057600080fd5b505afa158015610954573d6000803e3d6000fd5b505050506040513d601f19601f820116820180604052508101906109789190611c12565b91509150600660009054906101000a900473ffffffffffffffffffffffffffffffffffffffff1673ffffffffffffffffffffffffffffffffffffffff166108fc826003546109c691906120ee565b9081150290604051600060405180830381858888f193505050501580156109f1573d6000803e3d6000fd5b508173ffffffffffffffffffffffffffffffffffffffff166108fc829081150290604051600060405180830381858888f19350505050158015610a38573d6000803e3d6000fd5b507f21901fa892c430ea8bd38b9390225ac8e67eac75ee10ffba16feefc539a288f933600354604051610a6c929190611e6d565b60405180910390a1600192505050600160008190555090565b60015481565b600560009054906101000a900473ffffffffffffffffffffffffffffffffffffffff1681565b60088181548110610ac157600080fd5b90600052602060002090600202016000915090508060000160009054906101000a900473ffffffffffffffffffffffffffffffffffffffff16908060010154905082565b606080600060088054905067ffffffffffffffff811115610b4f577f4e487b7100000000000000000000000000000000000000000000000000000000600052604160045260246000fd5b604051908082528060200260200182016040528015610b7d5781602001602082028036833780820191505090505b509050600060088054905067ffffffffffffffff811115610bc7577f4e487b7100000000000000000000000000000000000000000000000000000000600052604160045260246000fd5b604051908082528060200260200182016040528015610bf55781602001602082028036833780820191505090505b50905060005b600880549050811015610d8b5760088181548110610c42577f4e487b7100000000000000000000000000000000000000000000000000000000600052603260045260246000fd5b906000526020600020906002020160000160009054906101000a900473ffffffffffffffffffffffffffffffffffffffff16838281518110610cad577f4e487b7100000000000000000000000000000000000000000000000000000000600052603260045260246000fd5b602002602001019073ffffffffffffffffffffffffffffffffffffffff16908173ffffffffffffffffffffffffffffffffffffffff168152505060088181548110610d21577f4e487b7100000000000000000000000000000000000000000000000000000000600052603260045260246000fd5b906000526020600020906002020160010154828281518110610d6c577f4e487b7100000000000000000000000000000000000000000000000000000000600052603260045260246000fd5b6020026020010181815250508080610d839061222c565b915050610bfb565b5081819350935050509091565b600e60009054906101000a900473ffffffffffffffffffffffffffffffffffffffff1681565b600060026000541415610e06576040517f08c379a0000000000000000000000000000000000000000000000000000000008152600401610dfd90611f8c565b60405180910390fd5b600260008190555060026003811115610e48577f4e487b7100000000000000000000000000000000000000000000000000000000600052602160045260246000fd5b610e506105b7565b6003811115610e88577f4e487b7100000000000000000000000000000000000000000000000000000000600052602160045260246000fd5b1480610f0a5750600380811115610ec8577f4e487b7100000000000000000000000000000000000000000000000000000000600052602160045260246000fd5b610ed06105b7565b6003811115610f08577f4e487b7100000000000000000000000000000000000000000000000000000000600052602160045260246000fd5b145b610f1357600080fd5b600460009054906101000a900473ffffffffffffffffffffffffffffffffffffffff1673ffffffffffffffffffffffffffffffffffffffff163373ffffffffffffffffffffffffffffffffffffffff1614610f6d57600080fd5b601060009054906101000a900473ffffffffffffffffffffffffffffffffffffffff1673ffffffffffffffffffffffffffffffffffffffff1663d1d78ac2600e60009054906101000a900473ffffffffffffffffffffffffffffffffffffffff16600954600460009054906101000a900473ffffffffffffffffffffffffffffffffffffffff166040518463ffffffff1660e01b815260040161101293929190611e96565b600060405180830381600087803b15801561102c57600080fd5b505af1158015611040573d6000803e3d6000fd5b505050506001601060146101000a81548160ff0219169083151502179055507f3ddd83255e383c22f9818cf93cc1f079ceeb0ef6dbd99b38838f1b951f9e0d77600460009054906101000a900473ffffffffffffffffffffffffffffffffffffffff166040516110b09190611e37565b60405180910390a160019050600160008190555090565b60075481565b601060149054906101000a900460ff1681565b600c5481565b60035481565b60025481565b60006002600054141561113a576040517f08c379a000000000000000000000000000000000000000000000000000000000815260040161113190611f8c565b60405180910390fd5b60026000819055506002600381111561117c577f4e487b7100000000000000000000000000000000000000000000000000000000600052602160045260246000fd5b6111846105b7565b60038111156111bc577f4e487b7100000000000000000000000000000000000000000000000000000000600052602160045260246000fd5b148061123e57506003808111156111fc577f4e487b7100000000000000000000000000000000000000000000000000000000600052602160045260246000fd5b6112046105b7565b600381111561123c577f4e487b7100000000000000000000000000000000000000000000000000000000600052602160045260246000fd5b145b806112c057506001600381111561127e577f4e487b7100000000000000000000000000000000000000000000000000000000600052602160045260246000fd5b6112866105b7565b60038111156112be577f4e487b7100000000000000000000000000000000000000000000000000000000600052602160045260246000fd5b145b6112c957600080fd5b6000600f60003373ffffffffffffffffffffffffffffffffffffffff1673ffffffffffffffffffffffffffffffffffffffff168152602001908152602001600020541161131557600080fd5b3373ffffffffffffffffffffffffffffffffffffffff166108fc600f60003373ffffffffffffffffffffffffffffffffffffffff1673ffffffffffffffffffffffffffffffffffffffff168152602001908152602001600020549081150290604051600060405180830381858888f1935050505015801561139a573d6000803e3d6000fd5b506000600f60003373ffffffffffffffffffffffffffffffffffffffff1673ffffffffffffffffffffffffffffffffffffffff1681526020019081526020016000208190555060019050600160008190555090565b601060009054906101000a900473ffffffffffffffffffffffffffffffffffffffff1681565b600b5481565b600060026000541415611463576040517f08c379a000000000000000000000000000000000000000000000000000000000815260040161145a90611f8c565b60405180910390fd5b6002600081905550600660009054906101000a900473ffffffffffffffffffffffffffffffffffffffff1673ffffffffffffffffffffffffffffffffffffffff163373ffffffffffffffffffffffffffffffffffffffff16146114c557600080fd5b600060038111156114ff577f4e487b7100000000000000000000000000000000000000000000000000000000600052602160045260246000fd5b6115076105b7565b600381111561153f577f4e487b7100000000000000000000000000000000000000000000000000000000600052602160045260246000fd5b1461154957600080fd5b60006003541461155857600080fd5b6001600a60006101000a81548160ff021916908315150217905550601060009054906101000a900473ffffffffffffffffffffffffffffffffffffffff1673ffffffffffffffffffffffffffffffffffffffff1663d1d78ac2600e60009054906101000a900473ffffffffffffffffffffffffffffffffffffffff16600954600560009054906101000a900473ffffffffffffffffffffffffffffffffffffffff166040518463ffffffff1660e01b815260040161161893929190611ecd565b600060405180830381600087803b15801561163257600080fd5b505af1158015611646573d6000803e3d6000fd5b505050507f3edab9d02702b82c68bc3a966d302af41abe4f3d8e2408b27b94e5f9bf2d722c60405160405180910390a160019050600160008190555090565b600a60009054906101000a900460ff1681565b600460009054906101000a900473ffffffffffffffffffffffffffffffffffffffff1681565b600f6020528060005260406000206000915090505481565b60095481565b600060026000541415611724576040517f08c379a000000000000000000000000000000000000000000000000000000000815260040161171b90611f8c565b60405180910390fd5b6002600081905550600560009054906101000a900473ffffffffffffffffffffffffffffffffffffffff1673ffffffffffffffffffffffffffffffffffffffff163373ffffffffffffffffffffffffffffffffffffffff16141580156117d85750600660009054906101000a900473ffffffffffffffffffffffffffffffffffffffff1673ffffffffffffffffffffffffffffffffffffffff163373ffffffffffffffffffffffffffffffffffffffff1614155b6117e157600080fd5b6000600381111561181b577f4e487b7100000000000000000000000000000000000000000000000000000000600052602160045260246000fd5b6118236105b7565b600381111561185b577f4e487b7100000000000000000000000000000000000000000000000000000000600052602160045260246000fd5b1461186557600080fd5b600d54341161187357600080fd5b600b546003546118839190612098565b341161188e57600080fd5b6000600460009054906101000a900473ffffffffffffffffffffffffffffffffffffffff169050600060035490503460038190555033600460006101000a81548173ffffffffffffffffffffffffffffffffffffffff021916908373ffffffffffffffffffffffffffffffffffffffff160217905550600c543410611929576001600a60016101000a81548160ff0219169083151502179055505b600860405180604001604052803373ffffffffffffffffffffffffffffffffffffffff16815260200134815250908060018154018082558091505060019003906000526020600020906002020160009091909190915060008201518160000160006101000a81548173ffffffffffffffffffffffffffffffffffffffff021916908373ffffffffffffffffffffffffffffffffffffffff16021790555060208201518160010155505060008114611a315780600f60008473ffffffffffffffffffffffffffffffffffffffff1673ffffffffffffffffffffffffffffffffffffffff1681526020019081526020016000206000828254611a299190612098565b925050819055505b7fdd0b6c6a77960e2066c96171b4d7ac9e8b4c184011f38544afa36a5bb63ec59f3334604051611a62929190611e6d565b60405180910390a1600192505050600160008190555090565b600d5481565b600660009054906101000a900473ffffffffffffffffffffffffffffffffffffffff1681565b600a60019054906101000a900460ff1681565b600081359050611ac981612350565b92915050565b600081519050611ade81612350565b92915050565b600081519050611af381612367565b92915050565b60006101008284031215611b0c57600080fd5b611b17610100611ff0565b90506000611b2784828501611bd4565b6000830152506020611b3b84828501611acf565b6020830152506040611b4f84828501611bd4565b6040830152506060611b6384828501611ae4565b6060830152506080611b7784828501611ae4565b60808301525060a0611b8b84828501611bd4565b60a08301525060c0611b9f84828501611acf565b60c08301525060e0611bb384828501611bd4565b60e08301525092915050565b600081359050611bce8161237e565b92915050565b600081519050611be38161237e565b92915050565b600060208284031215611bfb57600080fd5b6000611c0984828501611aba565b91505092915050565b60008060408385031215611c2557600080fd5b6000611c3385828601611acf565b9250506020611c4485828601611bd4565b9150509250929050565b60006101008284031215611c6157600080fd5b6000611c6f84828501611af9565b91505092915050565b600060208284031215611c8a57600080fd5b6000611c9884828501611bbf565b91505092915050565b6000611cad8383611cef565b60208301905092915050565b6000611cc58383611e19565b60208301905092915050565b611cda8161218f565b82525050565b611ce981612134565b82525050565b611cf881612122565b82525050565b611d0781612122565b82525050565b6000611d1882612035565b611d228185612065565b9350611d2d83612015565b8060005b83811015611d5e578151611d458882611ca1565b9750611d508361204b565b925050600181019050611d31565b5085935050505092915050565b6000611d7682612040565b611d808185612076565b9350611d8b83612025565b8060005b83811015611dbc578151611da38882611cb9565b9750611dae83612058565b925050600181019050611d8f565b5085935050505092915050565b611dd281612146565b82525050565b611de1816121a1565b82525050565b611df0816121c5565b82525050565b6000611e03601f83612087565b9150611e0e82612313565b602082019050919050565b611e2281612185565b82525050565b611e3181612185565b82525050565b6000602082019050611e4c6000830184611cfe565b92915050565b6000602082019050611e676000830184611ce0565b92915050565b6000604082019050611e826000830185611cfe565b611e8f6020830184611e28565b9392505050565b6000606082019050611eab6000830186611cfe565b611eb86020830185611e28565b611ec56040830184611cfe565b949350505050565b6000606082019050611ee26000830186611cfe565b611eef6020830185611e28565b611efc6040830184611cd1565b949350505050565b60006040820190508181036000830152611f1e8185611d0d565b90508181036020830152611f328184611d6b565b90509392505050565b6000602082019050611f506000830184611dc9565b92915050565b6000602082019050611f6b6000830184611dd8565b92915050565b6000602082019050611f866000830184611de7565b92915050565b60006020820190508181036000830152611fa581611df6565b9050919050565b6000602082019050611fc16000830184611e28565b92915050565b6000604082019050611fdc6000830185611e28565b611fe96020830184611e28565b9392505050565b6000611ffa61200b565b905061200682826121fb565b919050565b6000604051905090565b6000819050602082019050919050565b6000819050602082019050919050565b600081519050919050565b600081519050919050565b6000602082019050919050565b6000602082019050919050565b600082825260208201905092915050565b600082825260208201905092915050565b600082825260208201905092915050565b60006120a382612185565b91506120ae83612185565b9250827fffffffffffffffffffffffffffffffffffffffffffffffffffffffffffffffff038211156120e3576120e2612275565b5b828201905092915050565b60006120f982612185565b915061210483612185565b92508282101561211757612116612275565b5b828203905092915050565b600061212d82612165565b9050919050565b600061213f82612165565b9050919050565b60008115159050919050565b60008190506121608261233c565b919050565b600073ffffffffffffffffffffffffffffffffffffffff82169050919050565b6000819050919050565b600061219a826121d7565b9050919050565b60006121ac826121b3565b9050919050565b60006121be82612165565b9050919050565b60006121d082612152565b9050919050565b60006121e2826121e9565b9050919050565b60006121f482612165565b9050919050565b61220482612302565b810181811067ffffffffffffffff82111715612223576122226122d3565b5b80604052505050565b600061223782612185565b91507fffffffffffffffffffffffffffffffffffffffffffffffffffffffffffffffff82141561226a57612269612275565b5b600182019050919050565b7f4e487b7100000000000000000000000000000000000000000000000000000000600052601160045260246000fd5b7f4e487b7100000000000000000000000000000000000000000000000000000000600052602160045260246000fd5b7f4e487b7100000000000000000000000000000000000000000000000000000000600052604160045260246000fd5b6000601f19601f8301169050919050565b7f5265656e7472616e637947756172643a207265656e7472616e742063616c6c00600082015250565b6004811061234d5761234c6122a4565b5b50565b61235981612122565b811461236457600080fd5b50565b61237081612134565b811461237b57600080fd5b50565b61238781612185565b811461239257600080fd5b5056fea2646970667358221220f5cf7f03ab8123cd434219f971ad8fbb255f064ebf8853493e50199ad975ec5164736f6c63430008010033",
  "linkReferences": {},
  "deployedLinkReferences": {}
}