{
  "_format": "hh-sol-artifact-1",
  "contractName": "NFT",
  "sourceName": "contracts/NFTMarket.sol",
  "abi": [
    {
      "inputs": [
        {
          "internalType": "address",
          "name": "marketplaceAddress",
          "type": "address"
        }
      ],
      "stateMutability": "nonpayable",
      "type": "constructor"
    },
    {
      "anonymous": false,
      "inputs": [
        {
          "indexed": true,
          "internalType": "address",
          "name": "owner",
          "type": "address"
        },
        {
          "indexed": true,
          "internalType": "address",
          "name": "approved",
          "type": "address"
        },
        {
          "indexed": true,
          "internalType": "uint256",
          "name": "tokenId",
          "type": "uint256"
        }
      ],
      "name": "Approval",
      "type": "event"
    },
    {
      "anonymous": false,
      "inputs": [
        {
          "indexed": true,
          "internalType": "address",
          "name": "owner",
          "type": "address"
        },
        {
          "indexed": true,
          "internalType": "address",
          "name": "operator",
          "type": "address"
        },
        {
          "indexed": false,
          "internalType": "bool",
          "name": "approved",
          "type": "bool"
        }
      ],
      "name": "ApprovalForAll",
      "type": "event"
    },
    {
      "anonymous": false,
      "inputs": [
        {
          "indexed": false,
          "internalType": "uint256",
          "name": "tokenId",
          "type": "uint256"
        },
        {
          "indexed": false,
          "internalType": "address",
          "name": "minter",
          "type": "address"
        }
      ],
      "name": "NFTMinted",
      "type": "event"
    },
    {
      "anonymous": false,
      "inputs": [
        {
          "indexed": true,
          "internalType": "address",
          "name": "from",
          "type": "address"
        },
        {
          "indexed": true,
          "internalType": "address",
          "name": "to",
          "type": "address"
        },
        {
          "indexed": true,
          "internalType": "uint256",
          "name": "tokenId",
          "type": "uint256"
        }
      ],
      "name": "Transfer",
      "type": "event"
    },
    {
      "inputs": [
        {
          "internalType": "address",
          "name": "to",
          "type": "address"
        },
        {
          "internalType": "uint256",
          "name": "tokenId",
          "type": "uint256"
        }
      ],
      "name": "approve",
      "outputs": [],
      "stateMutability": "nonpayable",
      "type": "function"
    },
    {
      "inputs": [
        {
          "internalType": "address",
          "name": "owner",
          "type": "address"
        }
      ],
      "name": "balanceOf",
      "outputs": [
        {
          "internalType": "uint256",
          "name": "",
          "type": "uint256"
        }
      ],
      "stateMutability": "view",
      "type": "function"
    },
    {
      "inputs": [
        {
          "internalType": "string",
          "name": "tokenURI",
          "type": "string"
        },
        {
          "internalType": "address",
          "name": "artist",
          "type": "address"
        },
        {
          "internalType": "uint96",
          "name": "feeNumerator",
          "type": "uint96"
        }
      ],
      "name": "createToken",
      "outputs": [
        {
          "internalType": "uint256",
          "name": "",
          "type": "uint256"
        }
      ],
      "stateMutability": "nonpayable",
      "type": "function"
    },
    {
      "inputs": [
        {
          "internalType": "uint256",
          "name": "tokenId",
          "type": "uint256"
        }
      ],
      "name": "getApproved",
      "outputs": [
        {
          "internalType": "address",
          "name": "",
          "type": "address"
        }
      ],
      "stateMutability": "view",
      "type": "function"
    },
    {
      "inputs": [
        {
          "internalType": "uint256",
          "name": "_tokenId",
          "type": "uint256"
        }
      ],
      "name": "getTokenUri",
      "outputs": [
        {
          "internalType": "string",
          "name": "",
          "type": "string"
        }
      ],
      "stateMutability": "view",
      "type": "function"
    },
    {
      "inputs": [
        {
          "internalType": "address",
          "name": "owner",
          "type": "address"
        },
        {
          "internalType": "address",
          "name": "operator",
          "type": "address"
        }
      ],
      "name": "isApprovedForAll",
      "outputs": [
        {
          "internalType": "bool",
          "name": "",
          "type": "bool"
        }
      ],
      "stateMutability": "view",
      "type": "function"
    },
    {
      "inputs": [],
      "name": "name",
      "outputs": [
        {
          "internalType": "string",
          "name": "",
          "type": "string"
        }
      ],
      "stateMutability": "view",
      "type": "function"
    },
    {
      "inputs": [
        {
          "internalType": "uint256",
          "name": "tokenId",
          "type": "uint256"
        }
      ],
      "name": "ownerOf",
      "outputs": [
        {
          "internalType": "address",
          "name": "",
          "type": "address"
        }
      ],
      "stateMutability": "view",
      "type": "function"
    },
    {
      "inputs": [
        {
          "internalType": "uint256",
          "name": "_tokenId",
          "type": "uint256"
        },
        {
          "internalType": "uint256",
          "name": "_salePrice",
          "type": "uint256"
        }
      ],
      "name": "royaltyInfo",
      "outputs": [
        {
          "internalType": "address",
          "name": "",
          "type": "address"
        },
        {
          "internalType": "uint256",
          "name": "",
          "type": "uint256"
        }
      ],
      "stateMutability": "view",
      "type": "function"
    },
    {
      "inputs": [
        {
          "internalType": "address",
          "name": "from",
          "type": "address"
        },
        {
          "internalType": "address",
          "name": "to",
          "type": "address"
        },
        {
          "internalType": "uint256",
          "name": "tokenId",
          "type": "uint256"
        }
      ],
      "name": "safeTransferFrom",
      "outputs": [],
      "stateMutability": "nonpayable",
      "type": "function"
    },
    {
      "inputs": [
        {
          "internalType": "address",
          "name": "from",
          "type": "address"
        },
        {
          "internalType": "address",
          "name": "to",
          "type": "address"
        },
        {
          "internalType": "uint256",
          "name": "tokenId",
          "type": "uint256"
        },
        {
          "internalType": "bytes",
          "name": "_data",
          "type": "bytes"
        }
      ],
      "name": "safeTransferFrom",
      "outputs": [],
      "stateMutability": "nonpayable",
      "type": "function"
    },
    {
      "inputs": [
        {
          "internalType": "address",
          "name": "operator",
          "type": "address"
        },
        {
          "internalType": "bool",
          "name": "approved",
          "type": "bool"
        }
      ],
      "name": "setApprovalForAll",
      "outputs": [],
      "stateMutability": "nonpayable",
      "type": "function"
    },
    {
      "inputs": [
        {
          "internalType": "bytes4",
          "name": "interfaceId",
          "type": "bytes4"
        }
      ],
      "name": "supportsInterface",
      "outputs": [
        {
          "internalType": "bool",
          "name": "",
          "type": "bool"
        }
      ],
      "stateMutability": "view",
      "type": "function"
    },
    {
      "inputs": [],
      "name": "symbol",
      "outputs": [
        {
          "internalType": "string",
          "name": "",
          "type": "string"
        }
      ],
      "stateMutability": "view",
      "type": "function"
    },
    {
      "inputs": [
        {
          "internalType": "uint256",
          "name": "tokenId",
          "type": "uint256"
        }
      ],
      "name": "tokenURI",
      "outputs": [
        {
          "internalType": "string",
          "name": "",
          "type": "string"
        }
      ],
      "stateMutability": "view",
      "type": "function"
    },
    {
      "inputs": [
        {
          "internalType": "address",
          "name": "from",
          "type": "address"
        },
        {
          "internalType": "address",
          "name": "to",
          "type": "address"
        },
        {
          "internalType": "uint256",
          "name": "tokenId",
          "type": "uint256"
        }
      ],
      "name": "transferFrom",
      "outputs": [],
      "stateMutability": "nonpayable",
      "type": "function"
    }
  ],
  "bytecode": "0x60806040523480156200001157600080fd5b5060405162003925380380620039258339818101604052810190620000379190620003a7565b6040518060400160405280601381526020017f4469676974616c204d61726b6574706c616365000000000000000000000000008152506040518060400160405280600381526020017f444d5000000000000000000000000000000000000000000000000000000000008152508160009080519060200190620000bb929190620002e0565b508060019080519060200190620000d4929190620002e0565b50505080600a60006101000a81548173ffffffffffffffffffffffffffffffffffffffff021916908373ffffffffffffffffffffffffffffffffffffffff1602179055506200012b3360646200013260201b60201c565b50620005a1565b62000142620002d660201b60201c565b6bffffffffffffffffffffffff16816bffffffffffffffffffffffff161115620001a3576040517f08c379a00000000000000000000000000000000000000000000000000000000081526004016200019a9062000421565b60405180910390fd5b600073ffffffffffffffffffffffffffffffffffffffff168273ffffffffffffffffffffffffffffffffffffffff16141562000216576040517f08c379a00000000000000000000000000000000000000000000000000000000081526004016200020d9062000443565b60405180910390fd5b60405180604001604052808373ffffffffffffffffffffffffffffffffffffffff168152602001826bffffffffffffffffffffffff16815250600c60008201518160000160006101000a81548173ffffffffffffffffffffffffffffffffffffffff021916908373ffffffffffffffffffffffffffffffffffffffff16021790555060208201518160000160146101000a8154816bffffffffffffffffffffffff02191690836bffffffffffffffffffffffff1602179055509050505050565b6000612710905090565b828054620002ee90620004aa565b90600052602060002090601f0160209004810192826200031257600085556200035e565b82601f106200032d57805160ff19168380011785556200035e565b828001600101855582156200035e579182015b828111156200035d57825182559160200191906001019062000340565b5b5090506200036d919062000371565b5090565b5b808211156200038c57600081600090555060010162000372565b5090565b600081519050620003a18162000587565b92915050565b600060208284031215620003ba57600080fd5b6000620003ca8482850162000390565b91505092915050565b6000620003e2602a8362000465565b9150620003ef826200050f565b604082019050919050565b60006200040960198362000465565b915062000416826200055e565b602082019050919050565b600060208201905081810360008301526200043c81620003d3565b9050919050565b600060208201905081810360008301526200045e81620003fa565b9050919050565b600082825260208201905092915050565b600062000483826200048a565b9050919050565b600073ffffffffffffffffffffffffffffffffffffffff82169050919050565b60006002820490506001821680620004c357607f821691505b60208210811415620004da57620004d9620004e0565b5b50919050565b7f4e487b7100000000000000000000000000000000000000000000000000000000600052602260045260246000fd5b7f455243323938313a20726f79616c7479206665652077696c6c2065786365656460008201527f2073616c65507269636500000000000000000000000000000000000000000000602082015250565b7f455243323938313a20696e76616c696420726563656976657200000000000000600082015250565b620005928162000476565b81146200059e57600080fd5b50565b61337480620005b16000396000f3fe608060405234801561001057600080fd5b50600436106101005760003560e01c806370a0823111610097578063a22cb46511610066578063a22cb465146102e6578063b88d4fde14610302578063c87b56dd1461031e578063e985e9c51461034e57610100565b806370a08231146102385780638ad91345146102685780639256904d1461029857806395d89b41146102c857610100565b806323b872dd116100d357806323b872dd1461019f5780632a55205a146101bb57806342842e0e146101ec5780636352211e1461020857610100565b806301ffc9a71461010557806306fdde0314610135578063081812fc14610153578063095ea7b314610183575b600080fd5b61011f600480360381019061011a91906121a5565b61037e565b60405161012c91906126bd565b60405180910390f35b61013d610390565b60405161014a91906126d8565b60405180910390f35b61016d6004803603810190610168919061225e565b610422565b60405161017a919061262d565b60405180910390f35b61019d60048036038101906101989190612169565b6104a7565b005b6101b960048036038101906101b49190612063565b6105bf565b005b6101d560048036038101906101d09190612287565b61061f565b6040516101e3929190612694565b60405180910390f35b61020660048036038101906102019190612063565b61080a565b005b610222600480360381019061021d919061225e565b61082a565b60405161022f919061262d565b60405180910390f35b610252600480360381019061024d9190611ffe565b6108dc565b60405161025f919061293a565b60405180910390f35b610282600480360381019061027d919061225e565b610994565b60405161028f91906126d8565b60405180910390f35b6102b260048036038101906102ad91906121f7565b6109a6565b6040516102bf919061293a565b60405180910390f35b6102d0610a50565b6040516102dd91906126d8565b60405180910390f35b61030060048036038101906102fb919061212d565b610ae2565b005b61031c600480360381019061031791906120b2565b610af8565b005b6103386004803603810190610333919061225e565b610b5a565b60405161034591906126d8565b60405180910390f35b61036860048036038101906103639190612027565b610cac565b60405161037591906126bd565b60405180910390f35b600061038982610d40565b9050919050565b60606000805461039f90612c2b565b80601f01602080910402602001604051908101604052809291908181526020018280546103cb90612c2b565b80156104185780601f106103ed57610100808354040283529160200191610418565b820191906000526020600020905b8154815290600101906020018083116103fb57829003601f168201915b5050505050905090565b600061042d82610dba565b61046c576040517f08c379a00000000000000000000000000000000000000000000000000000000081526004016104639061287a565b60405180910390fd5b6004600083815260200190815260200160002060009054906101000a900473ffffffffffffffffffffffffffffffffffffffff169050919050565b60006104b28261082a565b90508073ffffffffffffffffffffffffffffffffffffffff168373ffffffffffffffffffffffffffffffffffffffff161415610523576040517f08c379a000000000000000000000000000000000000000000000000000000000815260040161051a906128ba565b60405180910390fd5b8073ffffffffffffffffffffffffffffffffffffffff16610542610e26565b73ffffffffffffffffffffffffffffffffffffffff16148061057157506105708161056b610e26565b610cac565b5b6105b0576040517f08c379a00000000000000000000000000000000000000000000000000000000081526004016105a7906127ba565b60405180910390fd5b6105ba8383610e2e565b505050565b6105d06105ca610e26565b82610ee7565b61060f576040517f08c379a0000000000000000000000000000000000000000000000000000000008152600401610606906128da565b60405180910390fd5b61061a838383610fc5565b505050565b6000806000600b60008681526020019081526020016000206040518060400160405290816000820160009054906101000a900473ffffffffffffffffffffffffffffffffffffffff1673ffffffffffffffffffffffffffffffffffffffff1673ffffffffffffffffffffffffffffffffffffffff1681526020016000820160149054906101000a90046bffffffffffffffffffffffff166bffffffffffffffffffffffff166bffffffffffffffffffffffff16815250509050600073ffffffffffffffffffffffffffffffffffffffff16816000015173ffffffffffffffffffffffffffffffffffffffff1614156107b557600c6040518060400160405290816000820160009054906101000a900473ffffffffffffffffffffffffffffffffffffffff1673ffffffffffffffffffffffffffffffffffffffff1673ffffffffffffffffffffffffffffffffffffffff1681526020016000820160149054906101000a90046bffffffffffffffffffffffff166bffffffffffffffffffffffff166bffffffffffffffffffffffff168152505090505b60006107bf61122c565b6bffffffffffffffffffffffff1682602001516bffffffffffffffffffffffff16866107eb9190612acf565b6107f59190612a9e565b90508160000151819350935050509250929050565b61082583838360405180602001604052806000815250610af8565b505050565b6000806002600084815260200190815260200160002060009054906101000a900473ffffffffffffffffffffffffffffffffffffffff169050600073ffffffffffffffffffffffffffffffffffffffff168173ffffffffffffffffffffffffffffffffffffffff1614156108d3576040517f08c379a00000000000000000000000000000000000000000000000000000000081526004016108ca906127fa565b60405180910390fd5b80915050919050565b60008073ffffffffffffffffffffffffffffffffffffffff168273ffffffffffffffffffffffffffffffffffffffff16141561094d576040517f08c379a0000000000000000000000000000000000000000000000000000000008152600401610944906127da565b60405180910390fd5b600360008373ffffffffffffffffffffffffffffffffffffffff1673ffffffffffffffffffffffffffffffffffffffff168152602001908152602001600020549050919050565b606061099f82610b5a565b9050919050565b60006109b26009611236565b60006109be600961124c565b90506109ca338261125a565b6109d48186611278565b6109df8185856112ec565b610a0c600a60009054906101000a900473ffffffffffffffffffffffffffffffffffffffff166001610ae2565b7f0176f203df400d7bd5f1b1c9ef36c16709bf3b5d9fd35f000a6bae32393f66c38133604051610a3d929190612955565b60405180910390a1809150509392505050565b606060018054610a5f90612c2b565b80601f0160208091040260200160405190810160405280929190818152602001828054610a8b90612c2b565b8015610ad85780601f10610aad57610100808354040283529160200191610ad8565b820191906000526020600020905b815481529060010190602001808311610abb57829003601f168201915b5050505050905090565b610af4610aed610e26565b8383611494565b5050565b610b09610b03610e26565b83610ee7565b610b48576040517f08c379a0000000000000000000000000000000000000000000000000000000008152600401610b3f906128da565b60405180910390fd5b610b5484848484611601565b50505050565b6060610b6582610dba565b610ba4576040517f08c379a0000000000000000000000000000000000000000000000000000000008152600401610b9b9061285a565b60405180910390fd5b6000600660008481526020019081526020016000208054610bc490612c2b565b80601f0160208091040260200160405190810160405280929190818152602001828054610bf090612c2b565b8015610c3d5780601f10610c1257610100808354040283529160200191610c3d565b820191906000526020600020905b815481529060010190602001808311610c2057829003601f168201915b505050505090506000610c4e61165d565b9050600081511415610c64578192505050610ca7565b600082511115610c99578082604051602001610c81929190612609565b60405160208183030381529060405292505050610ca7565b610ca284611674565b925050505b919050565b6000600560008473ffffffffffffffffffffffffffffffffffffffff1673ffffffffffffffffffffffffffffffffffffffff16815260200190815260200160002060008373ffffffffffffffffffffffffffffffffffffffff1673ffffffffffffffffffffffffffffffffffffffff16815260200190815260200160002060009054906101000a900460ff16905092915050565b60007f2a55205a000000000000000000000000000000000000000000000000000000007bffffffffffffffffffffffffffffffffffffffffffffffffffffffff1916827bffffffffffffffffffffffffffffffffffffffffffffffffffffffff19161480610db35750610db28261171b565b5b9050919050565b60008073ffffffffffffffffffffffffffffffffffffffff166002600084815260200190815260200160002060009054906101000a900473ffffffffffffffffffffffffffffffffffffffff1673ffffffffffffffffffffffffffffffffffffffff1614159050919050565b600033905090565b816004600083815260200190815260200160002060006101000a81548173ffffffffffffffffffffffffffffffffffffffff021916908373ffffffffffffffffffffffffffffffffffffffff160217905550808273ffffffffffffffffffffffffffffffffffffffff16610ea18361082a565b73ffffffffffffffffffffffffffffffffffffffff167f8c5be1e5ebec7d5bd14f71427d1e84f3dd0314c0f7b2291e5b200ac8c7c3b92560405160405180910390a45050565b6000610ef282610dba565b610f31576040517f08c379a0000000000000000000000000000000000000000000000000000000008152600401610f289061279a565b60405180910390fd5b6000610f3c8361082a565b90508073ffffffffffffffffffffffffffffffffffffffff168473ffffffffffffffffffffffffffffffffffffffff161480610fab57508373ffffffffffffffffffffffffffffffffffffffff16610f9384610422565b73ffffffffffffffffffffffffffffffffffffffff16145b80610fbc5750610fbb8185610cac565b5b91505092915050565b8273ffffffffffffffffffffffffffffffffffffffff16610fe58261082a565b73ffffffffffffffffffffffffffffffffffffffff161461103b576040517f08c379a00000000000000000000000000000000000000000000000000000000081526004016110329061271a565b60405180910390fd5b600073ffffffffffffffffffffffffffffffffffffffff168273ffffffffffffffffffffffffffffffffffffffff1614156110ab576040517f08c379a00000000000000000000000000000000000000000000000000000000081526004016110a29061275a565b60405180910390fd5b6110b68383836117fd565b6110c1600082610e2e565b6001600360008573ffffffffffffffffffffffffffffffffffffffff1673ffffffffffffffffffffffffffffffffffffffff16815260200190815260200160002060008282546111119190612b29565b925050819055506001600360008473ffffffffffffffffffffffffffffffffffffffff1673ffffffffffffffffffffffffffffffffffffffff16815260200190815260200160002060008282546111689190612a48565b92505081905550816002600083815260200190815260200160002060006101000a81548173ffffffffffffffffffffffffffffffffffffffff021916908373ffffffffffffffffffffffffffffffffffffffff160217905550808273ffffffffffffffffffffffffffffffffffffffff168473ffffffffffffffffffffffffffffffffffffffff167fddf252ad1be2c89b69c2b068fc378daa952ba7f163c4a11628f55a4df523b3ef60405160405180910390a4611227838383611802565b505050565b6000612710905090565b6001816000016000828254019250508190555050565b600081600001549050919050565b611274828260405180602001604052806000815250611807565b5050565b61128182610dba565b6112c0576040517f08c379a00000000000000000000000000000000000000000000000000000000081526004016112b79061281a565b60405180910390fd5b806006600084815260200190815260200160002090805190602001906112e7929190611e0d565b505050565b6112f461122c565b6bffffffffffffffffffffffff16816bffffffffffffffffffffffff161115611352576040517f08c379a00000000000000000000000000000000000000000000000000000000081526004016113499061291a565b60405180910390fd5b600073ffffffffffffffffffffffffffffffffffffffff168273ffffffffffffffffffffffffffffffffffffffff1614156113c2576040517f08c379a00000000000000000000000000000000000000000000000000000000081526004016113b9906128fa565b60405180910390fd5b60405180604001604052808373ffffffffffffffffffffffffffffffffffffffff168152602001826bffffffffffffffffffffffff16815250600b600085815260200190815260200160002060008201518160000160006101000a81548173ffffffffffffffffffffffffffffffffffffffff021916908373ffffffffffffffffffffffffffffffffffffffff16021790555060208201518160000160146101000a8154816bffffffffffffffffffffffff02191690836bffffffffffffffffffffffff160217905550905050505050565b8173ffffffffffffffffffffffffffffffffffffffff168373ffffffffffffffffffffffffffffffffffffffff161415611503576040517f08c379a00000000000000000000000000000000000000000000000000000000081526004016114fa9061277a565b60405180910390fd5b80600560008573ffffffffffffffffffffffffffffffffffffffff1673ffffffffffffffffffffffffffffffffffffffff16815260200190815260200160002060008473ffffffffffffffffffffffffffffffffffffffff1673ffffffffffffffffffffffffffffffffffffffff16815260200190815260200160002060006101000a81548160ff0219169083151502179055508173ffffffffffffffffffffffffffffffffffffffff168373ffffffffffffffffffffffffffffffffffffffff167f17307eab39ab6107e8899845ad3d59bd9653f200f220920489ca2b5937696c31836040516115f491906126bd565b60405180910390a3505050565b61160c848484610fc5565b61161884848484611862565b611657576040517f08c379a000000000000000000000000000000000000000000000000000000000815260040161164e906126fa565b60405180910390fd5b50505050565b606060405180602001604052806000815250905090565b606061167f82610dba565b6116be576040517f08c379a00000000000000000000000000000000000000000000000000000000081526004016116b59061289a565b60405180910390fd5b60006116c861165d565b905060008151116116e85760405180602001604052806000815250611713565b806116f2846119f9565b604051602001611703929190612609565b6040516020818303038152906040525b915050919050565b60007f80ac58cd000000000000000000000000000000000000000000000000000000007bffffffffffffffffffffffffffffffffffffffffffffffffffffffff1916827bffffffffffffffffffffffffffffffffffffffffffffffffffffffff191614806117e657507f5b5e139f000000000000000000000000000000000000000000000000000000007bffffffffffffffffffffffffffffffffffffffffffffffffffffffff1916827bffffffffffffffffffffffffffffffffffffffffffffffffffffffff1916145b806117f657506117f582611ba6565b5b9050919050565b505050565b505050565b6118118383611c10565b61181e6000848484611862565b61185d576040517f08c379a0000000000000000000000000000000000000000000000000000000008152600401611854906126fa565b60405180910390fd5b505050565b60006118838473ffffffffffffffffffffffffffffffffffffffff16611dea565b156119ec578373ffffffffffffffffffffffffffffffffffffffff1663150b7a026118ac610e26565b8786866040518563ffffffff1660e01b81526004016118ce9493929190612648565b602060405180830381600087803b1580156118e857600080fd5b505af192505050801561191957506040513d601f19601f8201168201806040525081019061191691906121ce565b60015b61199c573d8060008114611949576040519150601f19603f3d011682016040523d82523d6000602084013e61194e565b606091505b50600081511415611994576040517f08c379a000000000000000000000000000000000000000000000000000000000815260040161198b906126fa565b60405180910390fd5b805181602001fd5b63150b7a0260e01b7bffffffffffffffffffffffffffffffffffffffffffffffffffffffff1916817bffffffffffffffffffffffffffffffffffffffffffffffffffffffff1916149150506119f1565b600190505b949350505050565b60606000821415611a41576040518060400160405280600181526020017f30000000000000000000000000000000000000000000000000000000000000008152509050611ba1565b600082905060005b60008214611a73578080611a5c90612c8e565b915050600a82611a6c9190612a9e565b9150611a49565b60008167ffffffffffffffff811115611ab5577f4e487b7100000000000000000000000000000000000000000000000000000000600052604160045260246000fd5b6040519080825280601f01601f191660200182016040528015611ae75781602001600182028036833780820191505090505b5090505b60008514611b9a57600182611b009190612b29565b9150600a85611b0f9190612cd7565b6030611b1b9190612a48565b60f81b818381518110611b57577f4e487b7100000000000000000000000000000000000000000000000000000000600052603260045260246000fd5b60200101907effffffffffffffffffffffffffffffffffffffffffffffffffffffffffffff1916908160001a905350600a85611b939190612a9e565b9450611aeb565b8093505050505b919050565b60007f01ffc9a7000000000000000000000000000000000000000000000000000000007bffffffffffffffffffffffffffffffffffffffffffffffffffffffff1916827bffffffffffffffffffffffffffffffffffffffffffffffffffffffff1916149050919050565b600073ffffffffffffffffffffffffffffffffffffffff168273ffffffffffffffffffffffffffffffffffffffff161415611c80576040517f08c379a0000000000000000000000000000000000000000000000000000000008152600401611c779061283a565b60405180910390fd5b611c8981610dba565b15611cc9576040517f08c379a0000000000000000000000000000000000000000000000000000000008152600401611cc09061273a565b60405180910390fd5b611cd5600083836117fd565b6001600360008473ffffffffffffffffffffffffffffffffffffffff1673ffffffffffffffffffffffffffffffffffffffff1681526020019081526020016000206000828254611d259190612a48565b92505081905550816002600083815260200190815260200160002060006101000a81548173ffffffffffffffffffffffffffffffffffffffff021916908373ffffffffffffffffffffffffffffffffffffffff160217905550808273ffffffffffffffffffffffffffffffffffffffff16600073ffffffffffffffffffffffffffffffffffffffff167fddf252ad1be2c89b69c2b068fc378daa952ba7f163c4a11628f55a4df523b3ef60405160405180910390a4611de660008383611802565b5050565b6000808273ffffffffffffffffffffffffffffffffffffffff163b119050919050565b828054611e1990612c2b565b90600052602060002090601f016020900481019282611e3b5760008555611e82565b82601f10611e5457805160ff1916838001178555611e82565b82800160010185558215611e82579182015b82811115611e81578251825591602001919060010190611e66565b5b509050611e8f9190611e93565b5090565b5b80821115611eac576000816000905550600101611e94565b5090565b6000611ec3611ebe846129a3565b61297e565b905082815260208101848484011115611edb57600080fd5b611ee6848285612be9565b509392505050565b6000611f01611efc846129d4565b61297e565b905082815260208101848484011115611f1957600080fd5b611f24848285612be9565b509392505050565b600081359050611f3b816132cb565b92915050565b600081359050611f50816132e2565b92915050565b600081359050611f65816132f9565b92915050565b600081519050611f7a816132f9565b92915050565b600082601f830112611f9157600080fd5b8135611fa1848260208601611eb0565b91505092915050565b600082601f830112611fbb57600080fd5b8135611fcb848260208601611eee565b91505092915050565b600081359050611fe381613310565b92915050565b600081359050611ff881613327565b92915050565b60006020828403121561201057600080fd5b600061201e84828501611f2c565b91505092915050565b6000806040838503121561203a57600080fd5b600061204885828601611f2c565b925050602061205985828601611f2c565b9150509250929050565b60008060006060848603121561207857600080fd5b600061208686828701611f2c565b935050602061209786828701611f2c565b92505060406120a886828701611fd4565b9150509250925092565b600080600080608085870312156120c857600080fd5b60006120d687828801611f2c565b94505060206120e787828801611f2c565b93505060406120f887828801611fd4565b925050606085013567ffffffffffffffff81111561211557600080fd5b61212187828801611f80565b91505092959194509250565b6000806040838503121561214057600080fd5b600061214e85828601611f2c565b925050602061215f85828601611f41565b9150509250929050565b6000806040838503121561217c57600080fd5b600061218a85828601611f2c565b925050602061219b85828601611fd4565b9150509250929050565b6000602082840312156121b757600080fd5b60006121c584828501611f56565b91505092915050565b6000602082840312156121e057600080fd5b60006121ee84828501611f6b565b91505092915050565b60008060006060848603121561220c57600080fd5b600084013567ffffffffffffffff81111561222657600080fd5b61223286828701611faa565b935050602061224386828701611f2c565b925050604061225486828701611fe9565b9150509250925092565b60006020828403121561227057600080fd5b600061227e84828501611fd4565b91505092915050565b6000806040838503121561229a57600080fd5b60006122a885828601611fd4565b92505060206122b985828601611fd4565b9150509250929050565b6122cc81612b5d565b82525050565b6122db81612b6f565b82525050565b60006122ec82612a05565b6122f68185612a1b565b9350612306818560208601612bf8565b61230f81612dc4565b840191505092915050565b600061232582612a10565b61232f8185612a2c565b935061233f818560208601612bf8565b61234881612dc4565b840191505092915050565b600061235e82612a10565b6123688185612a3d565b9350612378818560208601612bf8565b80840191505092915050565b6000612391603283612a2c565b915061239c82612dd5565b604082019050919050565b60006123b4602583612a2c565b91506123bf82612e24565b604082019050919050565b60006123d7601c83612a2c565b91506123e282612e73565b602082019050919050565b60006123fa602483612a2c565b915061240582612e9c565b604082019050919050565b600061241d601983612a2c565b915061242882612eeb565b602082019050919050565b6000612440602c83612a2c565b915061244b82612f14565b604082019050919050565b6000612463603883612a2c565b915061246e82612f63565b604082019050919050565b6000612486602a83612a2c565b915061249182612fb2565b604082019050919050565b60006124a9602983612a2c565b91506124b482613001565b604082019050919050565b60006124cc602e83612a2c565b91506124d782613050565b604082019050919050565b60006124ef602083612a2c565b91506124fa8261309f565b602082019050919050565b6000612512603183612a2c565b915061251d826130c8565b604082019050919050565b6000612535602c83612a2c565b915061254082613117565b604082019050919050565b6000612558602f83612a2c565b915061256382613166565b604082019050919050565b600061257b602183612a2c565b9150612586826131b5565b604082019050919050565b600061259e603183612a2c565b91506125a982613204565b604082019050919050565b60006125c1601b83612a2c565b91506125cc82613253565b602082019050919050565b60006125e4602a83612a2c565b91506125ef8261327c565b604082019050919050565b61260381612bc7565b82525050565b60006126158285612353565b91506126218284612353565b91508190509392505050565b600060208201905061264260008301846122c3565b92915050565b600060808201905061265d60008301876122c3565b61266a60208301866122c3565b61267760408301856125fa565b818103606083015261268981846122e1565b905095945050505050565b60006040820190506126a960008301856122c3565b6126b660208301846125fa565b9392505050565b60006020820190506126d260008301846122d2565b92915050565b600060208201905081810360008301526126f2818461231a565b905092915050565b6000602082019050818103600083015261271381612384565b9050919050565b60006020820190508181036000830152612733816123a7565b9050919050565b60006020820190508181036000830152612753816123ca565b9050919050565b60006020820190508181036000830152612773816123ed565b9050919050565b6000602082019050818103600083015261279381612410565b9050919050565b600060208201905081810360008301526127b381612433565b9050919050565b600060208201905081810360008301526127d381612456565b9050919050565b600060208201905081810360008301526127f381612479565b9050919050565b600060208201905081810360008301526128138161249c565b9050919050565b60006020820190508181036000830152612833816124bf565b9050919050565b60006020820190508181036000830152612853816124e2565b9050919050565b6000602082019050818103600083015261287381612505565b9050919050565b6000602082019050818103600083015261289381612528565b9050919050565b600060208201905081810360008301526128b38161254b565b9050919050565b600060208201905081810360008301526128d38161256e565b9050919050565b600060208201905081810360008301526128f381612591565b9050919050565b60006020820190508181036000830152612913816125b4565b9050919050565b60006020820190508181036000830152612933816125d7565b9050919050565b600060208201905061294f60008301846125fa565b92915050565b600060408201905061296a60008301856125fa565b61297760208301846122c3565b9392505050565b6000612988612999565b90506129948282612c5d565b919050565b6000604051905090565b600067ffffffffffffffff8211156129be576129bd612d95565b5b6129c782612dc4565b9050602081019050919050565b600067ffffffffffffffff8211156129ef576129ee612d95565b5b6129f882612dc4565b9050602081019050919050565b600081519050919050565b600081519050919050565b600082825260208201905092915050565b600082825260208201905092915050565b600081905092915050565b6000612a5382612bc7565b9150612a5e83612bc7565b9250827fffffffffffffffffffffffffffffffffffffffffffffffffffffffffffffffff03821115612a9357612a92612d08565b5b828201905092915050565b6000612aa982612bc7565b9150612ab483612bc7565b925082612ac457612ac3612d37565b5b828204905092915050565b6000612ada82612bc7565b9150612ae583612bc7565b9250817fffffffffffffffffffffffffffffffffffffffffffffffffffffffffffffffff0483118215151615612b1e57612b1d612d08565b5b828202905092915050565b6000612b3482612bc7565b9150612b3f83612bc7565b925082821015612b5257612b51612d08565b5b828203905092915050565b6000612b6882612ba7565b9050919050565b60008115159050919050565b60007fffffffff0000000000000000000000000000000000000000000000000000000082169050919050565b600073ffffffffffffffffffffffffffffffffffffffff82169050919050565b6000819050919050565b60006bffffffffffffffffffffffff82169050919050565b82818337600083830152505050565b60005b83811015612c16578082015181840152602081019050612bfb565b83811115612c25576000848401525b50505050565b60006002820490506001821680612c4357607f821691505b60208210811415612c5757612c56612d66565b5b50919050565b612c6682612dc4565b810181811067ffffffffffffffff82111715612c8557612c84612d95565b5b80604052505050565b6000612c9982612bc7565b91507fffffffffffffffffffffffffffffffffffffffffffffffffffffffffffffffff821415612ccc57612ccb612d08565b5b600182019050919050565b6000612ce282612bc7565b9150612ced83612bc7565b925082612cfd57612cfc612d37565b5b828206905092915050565b7f4e487b7100000000000000000000000000000000000000000000000000000000600052601160045260246000fd5b7f4e487b7100000000000000000000000000000000000000000000000000000000600052601260045260246000fd5b7f4e487b7100000000000000000000000000000000000000000000000000000000600052602260045260246000fd5b7f4e487b7100000000000000000000000000000000000000000000000000000000600052604160045260246000fd5b6000601f19601f8301169050919050565b7f4552433732313a207472616e7366657220746f206e6f6e20455243373231526560008201527f63656976657220696d706c656d656e7465720000000000000000000000000000602082015250565b7f4552433732313a207472616e736665722066726f6d20696e636f72726563742060008201527f6f776e6572000000000000000000000000000000000000000000000000000000602082015250565b7f4552433732313a20746f6b656e20616c7265616479206d696e74656400000000600082015250565b7f4552433732313a207472616e7366657220746f20746865207a65726f2061646460008201527f7265737300000000000000000000000000000000000000000000000000000000602082015250565b7f4552433732313a20617070726f766520746f2063616c6c657200000000000000600082015250565b7f4552433732313a206f70657261746f7220717565727920666f72206e6f6e657860008201527f697374656e7420746f6b656e0000000000000000000000000000000000000000602082015250565b7f4552433732313a20617070726f76652063616c6c6572206973206e6f74206f7760008201527f6e6572206e6f7220617070726f76656420666f7220616c6c0000000000000000602082015250565b7f4552433732313a2062616c616e636520717565727920666f7220746865207a6560008201527f726f206164647265737300000000000000000000000000000000000000000000602082015250565b7f4552433732313a206f776e657220717565727920666f72206e6f6e657869737460008201527f656e7420746f6b656e0000000000000000000000000000000000000000000000602082015250565b7f45524337323155524953746f726167653a2055524920736574206f66206e6f6e60008201527f6578697374656e7420746f6b656e000000000000000000000000000000000000602082015250565b7f4552433732313a206d696e7420746f20746865207a65726f2061646472657373600082015250565b7f45524337323155524953746f726167653a2055524920717565727920666f722060008201527f6e6f6e6578697374656e7420746f6b656e000000000000000000000000000000602082015250565b7f4552433732313a20617070726f76656420717565727920666f72206e6f6e657860008201527f697374656e7420746f6b656e0000000000000000000000000000000000000000602082015250565b7f4552433732314d657461646174613a2055524920717565727920666f72206e6f60008201527f6e6578697374656e7420746f6b656e0000000000000000000000000000000000602082015250565b7f4552433732313a20617070726f76616c20746f2063757272656e74206f776e6560008201527f7200000000000000000000000000000000000000000000000000000000000000602082015250565b7f4552433732313a207472616e736665722063616c6c6572206973206e6f74206f60008201527f776e6572206e6f7220617070726f766564000000000000000000000000000000602082015250565b7f455243323938313a20496e76616c696420706172616d65746572730000000000600082015250565b7f455243323938313a20726f79616c7479206665652077696c6c2065786365656460008201527f2073616c65507269636500000000000000000000000000000000000000000000602082015250565b6132d481612b5d565b81146132df57600080fd5b50565b6132eb81612b6f565b81146132f657600080fd5b50565b61330281612b7b565b811461330d57600080fd5b50565b61331981612bc7565b811461332457600080fd5b50565b61333081612bd1565b811461333b57600080fd5b5056fea26469706673582212201547699ce2fe68408d06669398dbab1b3d472cff74be3397f92dfd94630c46a964736f6c63430008010033",
  "linkReferences": {},
  "deployedLinkReferences": {}
}