{
  "_format": "hh-sol-artifact-1",
  "contractName": "NFTMarket",
  "sourceName": "contracts/NFTMarket.sol",
  "abi": [
    {
      "inputs": [],
      "stateMutability": "nonpayable",
      "type": "constructor"
    },
    {
      "anonymous": false,
      "inputs": [
        {
          "indexed": true,
          "internalType": "uint256",
          "name": "itemId",
          "type": "uint256"
        },
        {
          "indexed": false,
          "internalType": "address",
          "name": "nftContract",
          "type": "address"
        },
        {
          "indexed": false,
          "internalType": "uint256",
          "name": "tokenId",
          "type": "uint256"
        },
        {
          "indexed": false,
          "internalType": "address",
          "name": "seller",
          "type": "address"
        },
        {
          "indexed": false,
          "internalType": "address",
          "name": "owner",
          "type": "address"
        },
        {
          "indexed": false,
          "internalType": "uint256",
          "name": "price",
          "type": "uint256"
        },
        {
          "indexed": true,
          "internalType": "address",
          "name": "auctionAddress",
          "type": "address"
        },
        {
          "indexed": true,
          "internalType": "uint256",
          "name": "collectionId",
          "type": "uint256"
        }
      ],
      "name": "MarketItemCreated",
      "type": "event"
    },
    {
      "anonymous": false,
      "inputs": [
        {
          "indexed": true,
          "internalType": "uint256",
          "name": "auctionId",
          "type": "uint256"
        },
        {
          "indexed": true,
          "internalType": "address",
          "name": "nftContract",
          "type": "address"
        },
        {
          "indexed": true,
          "internalType": "uint256",
          "name": "tokenId",
          "type": "uint256"
        },
        {
          "indexed": false,
          "internalType": "address",
          "name": "auctionAddress",
          "type": "address"
        }
      ],
      "name": "SaleStarted",
      "type": "event"
    },
    {
      "inputs": [],
      "name": "_collectionsLen",
      "outputs": [
        {
          "internalType": "uint256",
          "name": "_value",
          "type": "uint256"
        }
      ],
      "stateMutability": "view",
      "type": "function"
    },
    {
      "inputs": [],
      "name": "_itemIds",
      "outputs": [
        {
          "internalType": "uint256",
          "name": "_value",
          "type": "uint256"
        }
      ],
      "stateMutability": "view",
      "type": "function"
    },
    {
      "inputs": [
        {
          "internalType": "address",
          "name": "nftContract",
          "type": "address"
        },
        {
          "internalType": "uint256",
          "name": "tokenId",
          "type": "uint256"
        },
        {
          "internalType": "address",
          "name": "artist",
          "type": "address"
        },
        {
          "internalType": "uint256",
          "name": "_endTime",
          "type": "uint256"
        },
        {
          "internalType": "uint256",
          "name": "_minIncrement",
          "type": "uint256"
        },
        {
          "internalType": "uint256",
          "name": "_directBuyPrice",
          "type": "uint256"
        },
        {
          "internalType": "uint256",
          "name": "_startPrice",
          "type": "uint256"
        },
        {
          "internalType": "uint256",
          "name": "collectionId",
          "type": "uint256"
        }
      ],
      "name": "addItemToMarketAndStartAuction",
      "outputs": [],
      "stateMutability": "payable",
      "type": "function"
    },
    {
      "inputs": [
        {
          "internalType": "address",
          "name": "",
          "type": "address"
        }
      ],
      "name": "auctionAllowance",
      "outputs": [
        {
          "internalType": "bool",
          "name": "",
          "type": "bool"
        }
      ],
      "stateMutability": "view",
      "type": "function"
    },
    {
      "inputs": [
        {
          "internalType": "uint256",
          "name": "",
          "type": "uint256"
        }
      ],
      "name": "auctions",
      "outputs": [
        {
          "internalType": "contract Auction",
          "name": "",
          "type": "address"
        }
      ],
      "stateMutability": "view",
      "type": "function"
    },
    {
      "inputs": [
        {
          "internalType": "uint256",
          "name": "",
          "type": "uint256"
        },
        {
          "internalType": "uint256",
          "name": "",
          "type": "uint256"
        }
      ],
      "name": "collectionIdToItemId",
      "outputs": [
        {
          "internalType": "uint256",
          "name": "",
          "type": "uint256"
        }
      ],
      "stateMutability": "view",
      "type": "function"
    },
    {
      "inputs": [
        {
          "internalType": "uint256",
          "name": "",
          "type": "uint256"
        }
      ],
      "name": "collectionInfos",
      "outputs": [
        {
          "internalType": "string",
          "name": "image",
          "type": "string"
        },
        {
          "internalType": "string",
          "name": "name",
          "type": "string"
        },
        {
          "internalType": "string",
          "name": "artistName",
          "type": "string"
        },
        {
          "internalType": "string",
          "name": "artistImg",
          "type": "string"
        },
        {
          "internalType": "string",
          "name": "description",
          "type": "string"
        },
        {
          "internalType": "uint256",
          "name": "len",
          "type": "uint256"
        },
        {
          "internalType": "address",
          "name": "collectionOwner",
          "type": "address"
        }
      ],
      "stateMutability": "view",
      "type": "function"
    },
    {
      "inputs": [
        {
          "internalType": "uint256",
          "name": "",
          "type": "uint256"
        },
        {
          "internalType": "uint256",
          "name": "",
          "type": "uint256"
        }
      ],
      "name": "collections",
      "outputs": [
        {
          "internalType": "uint256",
          "name": "",
          "type": "uint256"
        }
      ],
      "stateMutability": "view",
      "type": "function"
    },
    {
      "inputs": [
        {
          "internalType": "string",
          "name": "image",
          "type": "string"
        },
        {
          "internalType": "string",
          "name": "name",
          "type": "string"
        },
        {
          "internalType": "string",
          "name": "artistName",
          "type": "string"
        },
        {
          "internalType": "string",
          "name": "artistImg",
          "type": "string"
        },
        {
          "internalType": "string",
          "name": "description",
          "type": "string"
        }
      ],
      "name": "createCollection",
      "outputs": [],
      "stateMutability": "nonpayable",
      "type": "function"
    },
    {
      "inputs": [
        {
          "internalType": "address",
          "name": "_auctionAddr",
          "type": "address"
        }
      ],
      "name": "getAuctionInfo",
      "outputs": [
        {
          "internalType": "uint256",
          "name": "",
          "type": "uint256"
        },
        {
          "internalType": "address",
          "name": "",
          "type": "address"
        },
        {
          "internalType": "uint256",
          "name": "",
          "type": "uint256"
        },
        {
          "internalType": "uint256",
          "name": "",
          "type": "uint256"
        },
        {
          "internalType": "uint256",
          "name": "",
          "type": "uint256"
        },
        {
          "internalType": "uint256",
          "name": "",
          "type": "uint256"
        },
        {
          "internalType": "uint256",
          "name": "",
          "type": "uint256"
        }
      ],
      "stateMutability": "view",
      "type": "function"
    },
    {
      "inputs": [],
      "name": "getAuctions",
      "outputs": [
        {
          "internalType": "address[]",
          "name": "_auctions",
          "type": "address[]"
        }
      ],
      "stateMutability": "view",
      "type": "function"
    },
    {
      "inputs": [
        {
          "internalType": "uint256",
          "name": "_collectionId",
          "type": "uint256"
        },
        {
          "internalType": "uint256",
          "name": "index",
          "type": "uint256"
        }
      ],
      "name": "getItemByCollectionId",
      "outputs": [
        {
          "internalType": "uint256",
          "name": "",
          "type": "uint256"
        }
      ],
      "stateMutability": "view",
      "type": "function"
    },
    {
      "inputs": [],
      "name": "getItemsByOwner",
      "outputs": [
        {
          "components": [
            {
              "internalType": "uint256",
              "name": "itemId",
              "type": "uint256"
            },
            {
              "internalType": "address",
              "name": "nftContract",
              "type": "address"
            },
            {
              "internalType": "uint256",
              "name": "tokenId",
              "type": "uint256"
            },
            {
              "internalType": "address payable",
              "name": "seller",
              "type": "address"
            },
            {
              "internalType": "address payable",
              "name": "owner",
              "type": "address"
            },
            {
              "internalType": "uint256",
              "name": "price",
              "type": "uint256"
            },
            {
              "internalType": "address",
              "name": "auctionAddress",
              "type": "address"
            },
            {
              "internalType": "uint256",
              "name": "collectionId",
              "type": "uint256"
            }
          ],
          "internalType": "struct NFTMarket.MarketItem[]",
          "name": "",
          "type": "tuple[]"
        }
      ],
      "stateMutability": "view",
      "type": "function"
    },
    {
      "inputs": [],
      "name": "getLatestPrice",
      "outputs": [
        {
          "internalType": "uint256",
          "name": "",
          "type": "uint256"
        }
      ],
      "stateMutability": "view",
      "type": "function"
    },
    {
      "inputs": [
        {
          "internalType": "uint256",
          "name": "marketItemId",
          "type": "uint256"
        }
      ],
      "name": "getMarketItemById",
      "outputs": [
        {
          "components": [
            {
              "internalType": "uint256",
              "name": "itemId",
              "type": "uint256"
            },
            {
              "internalType": "address",
              "name": "nftContract",
              "type": "address"
            },
            {
              "internalType": "uint256",
              "name": "tokenId",
              "type": "uint256"
            },
            {
              "internalType": "address payable",
              "name": "seller",
              "type": "address"
            },
            {
              "internalType": "address payable",
              "name": "owner",
              "type": "address"
            },
            {
              "internalType": "uint256",
              "name": "price",
              "type": "uint256"
            },
            {
              "internalType": "address",
              "name": "auctionAddress",
              "type": "address"
            },
            {
              "internalType": "uint256",
              "name": "collectionId",
              "type": "uint256"
            }
          ],
          "internalType": "struct NFTMarket.MarketItem",
          "name": "",
          "type": "tuple"
        }
      ],
      "stateMutability": "view",
      "type": "function"
    },
    {
      "inputs": [],
      "name": "getUnsoldItems",
      "outputs": [
        {
          "components": [
            {
              "internalType": "uint256",
              "name": "itemId",
              "type": "uint256"
            },
            {
              "internalType": "address",
              "name": "nftContract",
              "type": "address"
            },
            {
              "internalType": "uint256",
              "name": "tokenId",
              "type": "uint256"
            },
            {
              "internalType": "address payable",
              "name": "seller",
              "type": "address"
            },
            {
              "internalType": "address payable",
              "name": "owner",
              "type": "address"
            },
            {
              "internalType": "uint256",
              "name": "price",
              "type": "uint256"
            },
            {
              "internalType": "address",
              "name": "auctionAddress",
              "type": "address"
            },
            {
              "internalType": "uint256",
              "name": "collectionId",
              "type": "uint256"
            }
          ],
          "internalType": "struct NFTMarket.MarketItem[]",
          "name": "",
          "type": "tuple[]"
        }
      ],
      "stateMutability": "view",
      "type": "function"
    },
    {
      "inputs": [
        {
          "internalType": "address",
          "name": "",
          "type": "address"
        }
      ],
      "name": "marketAllowance",
      "outputs": [
        {
          "internalType": "bool",
          "name": "",
          "type": "bool"
        }
      ],
      "stateMutability": "view",
      "type": "function"
    },
    {
      "inputs": [
        {
          "internalType": "address",
          "name": "operator",
          "type": "address"
        },
        {
          "internalType": "address",
          "name": "from",
          "type": "address"
        },
        {
          "internalType": "uint256",
          "name": "tokenId",
          "type": "uint256"
        },
        {
          "internalType": "bytes",
          "name": "data",
          "type": "bytes"
        }
      ],
      "name": "onERC721Received",
      "outputs": [
        {
          "internalType": "bytes4",
          "name": "",
          "type": "bytes4"
        }
      ],
      "stateMutability": "nonpayable",
      "type": "function"
    },
    {
      "inputs": [
        {
          "internalType": "address",
          "name": "nftContract",
          "type": "address"
        },
        {
          "internalType": "uint256",
          "name": "itemId",
          "type": "uint256"
        },
        {
          "internalType": "address",
          "name": "to",
          "type": "address"
        }
      ],
      "name": "sellItemAndTransferOwnership",
      "outputs": [],
      "stateMutability": "payable",
      "type": "function"
    },
    {
      "inputs": [
        {
          "internalType": "address",
          "name": "to",
          "type": "address"
        },
        {
          "internalType": "bool",
          "name": "allowance",
          "type": "bool"
        }
      ],
      "name": "setMarketAllowance",
      "outputs": [],
      "stateMutability": "nonpayable",
      "type": "function"
    }
  ],
  "bytecode": "0x6080604052600060065534801561001557600080fd5b506001600081905550738a753747a1fa494ec906ce90e9f37563a8af630e600160006101000a81548173ffffffffffffffffffffffffffffffffffffffff021916908373ffffffffffffffffffffffffffffffffffffffff16021790555033600560006101000a81548173ffffffffffffffffffffffffffffffffffffffff021916908373ffffffffffffffffffffffffffffffffffffffff1602179055506161c6806100c36000396000f3fe6080604052600436106200013a5760003560e01c80638e15f47311620000af578063c29864bd116200006d578063c29864bd14620004bd578063cdfd98731462000501578063d1d78ac2146200052f578063d7c06919146200054f578063e5881724146200057f576200013a565b80638e15f47314620003a15780639353268c14620003d1578063952da37d146200041b5780639b8bc1271462000449578063a4c801f01462000479576200013a565b80634c6b3c9411620000fd5780634c6b3c94146200024d57806353dbceb11462000291578063571a26a014620002d55780637697c512146200031957806378c2f022146200035d576200013a565b8063150b7a02146200013f578063191903f914620001835780631b6087b914620001cd5780632025a6f314620001ed57806334a7f193146200021d575b600080fd5b3480156200014c57600080fd5b506200016b6004803603810190620001659190620028c4565b620005af565b6040516200017a919062003266565b60405180910390f35b3480156200019057600080fd5b50620001af6004803603810190620001a991906200286c565b620005c3565b604051620001c49796959493929190620033bf565b60405180910390f35b620001eb6004803603810190620001e59190620029e0565b620009d7565b005b348015620001fa57600080fd5b506200020562000eff565b604051620002149190620033a2565b60405180910390f35b3480156200022a57600080fd5b506200023562000f0b565b604051620002449190620033a2565b60405180910390f35b3480156200025a57600080fd5b5062000279600480360381019062000273919062002c26565b62000f17565b604051620002889190620033a2565b60405180910390f35b3480156200029e57600080fd5b50620002bd6004803603810190620002b7919062002bce565b62000f49565b604051620002cc919062003384565b60405180910390f35b348015620002e257600080fd5b50620003016004803603810190620002fb919062002bce565b620010ff565b60405162000310919062003283565b60405180910390f35b3480156200032657600080fd5b506200034560048036038101906200033f919062002c26565b62001132565b604051620003549190620033a2565b60405180910390f35b3480156200036a57600080fd5b5062000389600480360381019062000383919062002c26565b62001157565b604051620003989190620033a2565b60405180910390f35b348015620003ae57600080fd5b50620003b96200118b565b604051620003c89190620033a2565b60405180910390f35b348015620003de57600080fd5b50620003fd6004803603810190620003f7919062002bce565b6200123f565b604051620004129796959493929190620032a0565b60405180910390f35b3480156200042857600080fd5b5062000447600480360381019062000441919062002949565b62001571565b005b3480156200045657600080fd5b506200046162001627565b60405162000470919062003225565b60405180910390f35b3480156200048657600080fd5b50620004a560048036038101906200049f91906200286c565b6200199c565b604051620004b4919062003249565b60405180910390f35b348015620004ca57600080fd5b50620004e96004803603810190620004e391906200286c565b620019bc565b604051620004f8919062003249565b60405180910390f35b3480156200050e57600080fd5b506200052d600480360381019062000527919062002acf565b620019dc565b005b6200054d60048036038101906200054791906200298a565b62001be6565b005b3480156200055c57600080fd5b506200056762001e75565b60405162000576919062003201565b60405180910390f35b3480156200058c57600080fd5b506200059762001fbc565b604051620005a6919062003225565b60405180910390f35b600063150b7a0260e01b9050949350505050565b6000806000806000806000808873ffffffffffffffffffffffffffffffffffffffff1663700cdab16040518163ffffffff1660e01b815260040160206040518083038186803b1580156200061657600080fd5b505afa1580156200062b573d6000803e3d6000fd5b505050506040513d601f19601f8201168201806040525081019062000651919062002bfa565b905060008973ffffffffffffffffffffffffffffffffffffffff1663b5bc95916040518163ffffffff1660e01b815260040160206040518083038186803b1580156200069c57600080fd5b505afa158015620006b1573d6000803e3d6000fd5b505050506040513d601f19601f82011682018060405250810190620006d7919062002898565b905060008a73ffffffffffffffffffffffffffffffffffffffff166374b11d8a6040518163ffffffff1660e01b815260040160206040518083038186803b1580156200072257600080fd5b505afa15801562000737573d6000803e3d6000fd5b505050506040513d601f19601f820116820180604052508101906200075d919062002bfa565b905060008b73ffffffffffffffffffffffffffffffffffffffff1663ca6158cb6040518163ffffffff1660e01b815260040160206040518083038186803b158015620007a857600080fd5b505afa158015620007bd573d6000803e3d6000fd5b505050506040513d601f19601f82011682018060405250810190620007e3919062002bfa565b905060008c73ffffffffffffffffffffffffffffffffffffffff16633197cbb66040518163ffffffff1660e01b815260040160206040518083038186803b1580156200082e57600080fd5b505afa15801562000843573d6000803e3d6000fd5b505050506040513d601f19601f8201168201806040525081019062000869919062002bfa565b905060008d73ffffffffffffffffffffffffffffffffffffffff1663f1a9af896040518163ffffffff1660e01b815260040160206040518083038186803b158015620008b457600080fd5b505afa158015620008c9573d6000803e3d6000fd5b505050506040513d601f19601f82011682018060405250810190620008ef919062002bfa565b905060008e73ffffffffffffffffffffffffffffffffffffffff166308bfc3006040518163ffffffff1660e01b815260040160206040518083038186803b1580156200093a57600080fd5b505afa1580156200094f573d6000803e3d6000fd5b505050506040513d601f19601f8201168201806040525081019062000975919062002aa3565b6003811115620009ae577f4e487b7100000000000000000000000000000000000000000000000000000000600052602160045260246000fd5b9050868686868686869d509d509d509d509d509d509d5050505050505050919395979092949650565b6002600054141562000a20576040517f08c379a000000000000000000000000000000000000000000000000000000000815260040162000a179062003362565b60405180910390fd5b6002600081905550600560009054906101000a900473ffffffffffffffffffffffffffffffffffffffff1673ffffffffffffffffffffffffffffffffffffffff163373ffffffffffffffffffffffffffffffffffffffff16148062000ace5750600c60003373ffffffffffffffffffffffffffffffffffffffff1673ffffffffffffffffffffffffffffffffffffffff16815260200190815260200160002060009054906101000a900460ff165b62000ad857600080fd5b600654341462000b1f576040517f08c379a000000000000000000000000000000000000000000000000000000000815260040162000b169062003340565b60405180910390fd5b62000b2b6002620023b8565b600062000b396002620023ce565b905080600a60008481526020019081526020016000206000600b6000868152602001908152602001600020600501548152602001908152602001600020819055506001600b6000848152602001908152602001600020600501600082825462000ba391906200355f565b925050819055508873ffffffffffffffffffffffffffffffffffffffff1663095ea7b3308a6040518363ffffffff1660e01b815260040162000be792919062003177565b600060405180830381600087803b15801562000c0257600080fd5b505af115801562000c17573d6000803e3d6000fd5b505050508873ffffffffffffffffffffffffffffffffffffffff166342842e0e33308b6040518463ffffffff1660e01b815260040162000c5a939291906200309b565b600060405180830381600087803b15801562000c7557600080fd5b505af115801562000c8a573d6000803e3d6000fd5b50505050600062000ca188888888888f88620023dc565b90506040518061010001604052808381526020018b73ffffffffffffffffffffffffffffffffffffffff1681526020018a81526020013373ffffffffffffffffffffffffffffffffffffffff168152602001600073ffffffffffffffffffffffffffffffffffffffff1681526020018581526020018273ffffffffffffffffffffffffffffffffffffffff16815260200184815250600d60008481526020019081526020016000206000820151816000015560208201518160010160006101000a81548173ffffffffffffffffffffffffffffffffffffffff021916908373ffffffffffffffffffffffffffffffffffffffff1602179055506040820151816002015560608201518160030160006101000a81548173ffffffffffffffffffffffffffffffffffffffff021916908373ffffffffffffffffffffffffffffffffffffffff16021790555060808201518160040160006101000a81548173ffffffffffffffffffffffffffffffffffffffff021916908373ffffffffffffffffffffffffffffffffffffffff16021790555060a0820151816005015560c08201518160060160006101000a81548173ffffffffffffffffffffffffffffffffffffffff021916908373ffffffffffffffffffffffffffffffffffffffff16021790555060e08201518160070155905050828173ffffffffffffffffffffffffffffffffffffffff16837f8907773fdc90d847b4af8c17e808c16af803c9ac704b22133737f4203870d5ba8d8d3360008b60405162000ee3959493929190620031a4565b60405180910390a4505060016000819055505050505050505050565b60048060000154905081565b60028060000154905081565b600e602052816000526040600020818154811062000f3457600080fd5b90600052602060002001600091509150505481565b62000f5362002575565b6000600d600084815260200190815260200160002060405180610100016040529081600082015481526020016001820160009054906101000a900473ffffffffffffffffffffffffffffffffffffffff1673ffffffffffffffffffffffffffffffffffffffff1673ffffffffffffffffffffffffffffffffffffffff168152602001600282015481526020016003820160009054906101000a900473ffffffffffffffffffffffffffffffffffffffff1673ffffffffffffffffffffffffffffffffffffffff1673ffffffffffffffffffffffffffffffffffffffff1681526020016004820160009054906101000a900473ffffffffffffffffffffffffffffffffffffffff1673ffffffffffffffffffffffffffffffffffffffff1673ffffffffffffffffffffffffffffffffffffffff168152602001600582015481526020016006820160009054906101000a900473ffffffffffffffffffffffffffffffffffffffff1673ffffffffffffffffffffffffffffffffffffffff1673ffffffffffffffffffffffffffffffffffffffff168152602001600782015481525050905080915050919050565b60086020528060005260406000206000915054906101000a900473ffffffffffffffffffffffffffffffffffffffff1681565b600a602052816000526040600020602052806000526040600020600091509150505481565b600080600a600085815260200190815260200160002060008481526020019081526020016000205490508091505092915050565b600080600160009054906101000a900473ffffffffffffffffffffffffffffffffffffffff1673ffffffffffffffffffffffffffffffffffffffff1663feaf968c6040518163ffffffff1660e01b815260040160a06040518083038186803b158015620011f757600080fd5b505afa1580156200120c573d6000803e3d6000fd5b505050506040513d601f19601f8201168201806040525081019062001232919062002c67565b5050509150508091505090565b600b602052806000526040600020600091509050806000018054620012649062003736565b80601f0160208091040260200160405190810160405280929190818152602001828054620012929062003736565b8015620012e35780601f10620012b757610100808354040283529160200191620012e3565b820191906000526020600020905b815481529060010190602001808311620012c557829003601f168201915b505050505090806001018054620012fa9062003736565b80601f0160208091040260200160405190810160405280929190818152602001828054620013289062003736565b8015620013795780601f106200134d5761010080835404028352916020019162001379565b820191906000526020600020905b8154815290600101906020018083116200135b57829003601f168201915b505050505090806002018054620013909062003736565b80601f0160208091040260200160405190810160405280929190818152602001828054620013be9062003736565b80156200140f5780601f10620013e3576101008083540402835291602001916200140f565b820191906000526020600020905b815481529060010190602001808311620013f157829003601f168201915b505050505090806003018054620014269062003736565b80601f0160208091040260200160405190810160405280929190818152602001828054620014549062003736565b8015620014a55780601f106200147957610100808354040283529160200191620014a5565b820191906000526020600020905b8154815290600101906020018083116200148757829003601f168201915b505050505090806004018054620014bc9062003736565b80601f0160208091040260200160405190810160405280929190818152602001828054620014ea9062003736565b80156200153b5780601f106200150f576101008083540402835291602001916200153b565b820191906000526020600020905b8154815290600101906020018083116200151d57829003601f168201915b5050505050908060050154908060060160009054906101000a900473ffffffffffffffffffffffffffffffffffffffff16905087565b600560009054906101000a900473ffffffffffffffffffffffffffffffffffffffff1673ffffffffffffffffffffffffffffffffffffffff163373ffffffffffffffffffffffffffffffffffffffff1614620015cc57600080fd5b80600c60008473ffffffffffffffffffffffffffffffffffffffff1673ffffffffffffffffffffffffffffffffffffffff16815260200190815260200160002060006101000a81548160ff0219169083151502179055505050565b60606000620016376002620023ce565b90506000620016476003620023ce565b620016536002620023ce565b6200165f9190620035bc565b90506000808267ffffffffffffffff811115620016a5577f4e487b7100000000000000000000000000000000000000000000000000000000600052604160045260246000fd5b604051908082528060200260200182016040528015620016e257816020015b620016ce62002575565b815260200190600190039081620016c45790505b50905060005b848110156200199157600073ffffffffffffffffffffffffffffffffffffffff16600d60006001846200171c91906200355f565b815260200190815260200160002060040160009054906101000a900473ffffffffffffffffffffffffffffffffffffffff1673ffffffffffffffffffffffffffffffffffffffff1614156200197b5760006001826200177c91906200355f565b90506000600d600083815260200190815260200160002060405180610100016040529081600082015481526020016001820160009054906101000a900473ffffffffffffffffffffffffffffffffffffffff1673ffffffffffffffffffffffffffffffffffffffff1673ffffffffffffffffffffffffffffffffffffffff168152602001600282015481526020016003820160009054906101000a900473ffffffffffffffffffffffffffffffffffffffff1673ffffffffffffffffffffffffffffffffffffffff1673ffffffffffffffffffffffffffffffffffffffff1681526020016004820160009054906101000a900473ffffffffffffffffffffffffffffffffffffffff1673ffffffffffffffffffffffffffffffffffffffff1673ffffffffffffffffffffffffffffffffffffffff168152602001600582015481526020016006820160009054906101000a900473ffffffffffffffffffffffffffffffffffffffff1673ffffffffffffffffffffffffffffffffffffffff1673ffffffffffffffffffffffffffffffffffffffff1681526020016007820154815250509050808486815181106200195c577f4e487b7100000000000000000000000000000000000000000000000000000000600052603260045260246000fd5b60200260200101819052506001856200197691906200355f565b945050505b80806200198890620037a2565b915050620016e8565b508094505050505090565b600c6020528060005260406000206000915054906101000a900460ff1681565b60096020528060005260406000206000915054906101000a900460ff1681565b600560009054906101000a900473ffffffffffffffffffffffffffffffffffffffff1673ffffffffffffffffffffffffffffffffffffffff163373ffffffffffffffffffffffffffffffffffffffff16148062001a825750600c60003373ffffffffffffffffffffffffffffffffffffffff1673ffffffffffffffffffffffffffffffffffffffff16815260200190815260200160002060009054906101000a900460ff165b62001a8c57600080fd5b62001a986004620023b8565b600062001aa66004620023ce565b905084600b6000838152602001908152602001600020600101908051906020019062001ad492919062002612565b5085600b6000838152602001908152602001600020600001908051906020019062001b0192919062002612565b5083600b6000838152602001908152602001600020600201908051906020019062001b2e92919062002612565b5082600b6000838152602001908152602001600020600301908051906020019062001b5b92919062002612565b5081600b6000838152602001908152602001600020600401908051906020019062001b8892919062002612565b5033600b600083815260200190815260200160002060060160006101000a81548173ffffffffffffffffffffffffffffffffffffffff021916908373ffffffffffffffffffffffffffffffffffffffff160217905550505050505050565b6002600054141562001c2f576040517f08c379a000000000000000000000000000000000000000000000000000000000815260040162001c269062003362565b60405180910390fd5b6002600081905550600960003373ffffffffffffffffffffffffffffffffffffffff1673ffffffffffffffffffffffffffffffffffffffff16815260200190815260200160002060009054906101000a900460ff1662001c8e57600080fd5b6000600d6000848152602001908152602001600020600201549050600d600084815260200190815260200160002060030160009054906101000a900473ffffffffffffffffffffffffffffffffffffffff1673ffffffffffffffffffffffffffffffffffffffff166108fc349081150290604051600060405180830381858888f1935050505015801562001d26573d6000803e3d6000fd5b508373ffffffffffffffffffffffffffffffffffffffff166323b872dd3084846040518463ffffffff1660e01b815260040162001d66939291906200309b565b600060405180830381600087803b15801562001d8157600080fd5b505af115801562001d96573d6000803e3d6000fd5b5050505081600d600085815260200190815260200160002060040160006101000a81548173ffffffffffffffffffffffffffffffffffffffff021916908373ffffffffffffffffffffffffffffffffffffffff16021790555062001dfb6003620023b8565b600560009054906101000a900473ffffffffffffffffffffffffffffffffffffffff1673ffffffffffffffffffffffffffffffffffffffff166108fc6006549081150290604051600060405180830381858888f1935050505015801562001e66573d6000803e3d6000fd5b50506001600081905550505050565b606060075467ffffffffffffffff81111562001eba577f4e487b7100000000000000000000000000000000000000000000000000000000600052604160045260246000fd5b60405190808252806020026020018201604052801562001ee95781602001602082028036833780820191505090505b50905060005b60075481101562001fb8576008600082815260200190815260200160002060009054906101000a900473ffffffffffffffffffffffffffffffffffffffff1682828151811062001f68577f4e487b7100000000000000000000000000000000000000000000000000000000600052603260045260246000fd5b602002602001019073ffffffffffffffffffffffffffffffffffffffff16908173ffffffffffffffffffffffffffffffffffffffff1681525050808062001faf90620037a2565b91505062001eef565b5090565b6060600062001fcc6002620023ce565b905060008060005b838110156200207e573373ffffffffffffffffffffffffffffffffffffffff16600d60006001846200200791906200355f565b815260200190815260200160002060040160009054906101000a900473ffffffffffffffffffffffffffffffffffffffff1673ffffffffffffffffffffffffffffffffffffffff16141562002068576001836200206591906200355f565b92505b80806200207590620037a2565b91505062001fd4565b5060008267ffffffffffffffff811115620020c2577f4e487b7100000000000000000000000000000000000000000000000000000000600052604160045260246000fd5b604051908082528060200260200182016040528015620020ff57816020015b620020eb62002575565b815260200190600190039081620020e15790505b50905060005b84811015620023ad573373ffffffffffffffffffffffffffffffffffffffff16600d60006001846200213891906200355f565b815260200190815260200160002060040160009054906101000a900473ffffffffffffffffffffffffffffffffffffffff1673ffffffffffffffffffffffffffffffffffffffff161415620023975760006001826200219891906200355f565b90506000600d600083815260200190815260200160002060405180610100016040529081600082015481526020016001820160009054906101000a900473ffffffffffffffffffffffffffffffffffffffff1673ffffffffffffffffffffffffffffffffffffffff1673ffffffffffffffffffffffffffffffffffffffff168152602001600282015481526020016003820160009054906101000a900473ffffffffffffffffffffffffffffffffffffffff1673ffffffffffffffffffffffffffffffffffffffff1673ffffffffffffffffffffffffffffffffffffffff1681526020016004820160009054906101000a900473ffffffffffffffffffffffffffffffffffffffff1673ffffffffffffffffffffffffffffffffffffffff1673ffffffffffffffffffffffffffffffffffffffff168152602001600582015481526020016006820160009054906101000a900473ffffffffffffffffffffffffffffffffffffffff1673ffffffffffffffffffffffffffffffffffffffff1673ffffffffffffffffffffffffffffffffffffffff16815260200160078201548152505090508084868151811062002378577f4e487b7100000000000000000000000000000000000000000000000000000000600052603260045260246000fd5b60200260200101819052506001856200239291906200355f565b945050505b8080620023a490620037a2565b91505062002105565b508094505050505090565b6001816000016000828254019250508190555050565b600081600001549050919050565b6000808511620023eb57600080fd5b610e10871015620023fb57600080fd5b60006007549050600760008154809291906200241790620037a2565b91905055506000338a8a8a8a8a8a8a306040516200243590620026a3565b6200244999989796959493929190620030d8565b604051809103906000f08015801562002466573d6000803e3d6000fd5b509050806008600084815260200190815260200160002060006101000a81548173ffffffffffffffffffffffffffffffffffffffff021916908373ffffffffffffffffffffffffffffffffffffffff1602179055506001600960008373ffffffffffffffffffffffffffffffffffffffff1673ffffffffffffffffffffffffffffffffffffffff16815260200190815260200160002060006101000a81548160ff021916908315150217905550838573ffffffffffffffffffffffffffffffffffffffff16837f1398b1ac11b2c9ca8d5a61caf773bd710c1c38518953b66dbc89a64c358818b6846040516200255d91906200307e565b60405180910390a48092505050979650505050505050565b60405180610100016040528060008152602001600073ffffffffffffffffffffffffffffffffffffffff16815260200160008152602001600073ffffffffffffffffffffffffffffffffffffffff168152602001600073ffffffffffffffffffffffffffffffffffffffff16815260200160008152602001600073ffffffffffffffffffffffffffffffffffffffff168152602001600081525090565b828054620026209062003736565b90600052602060002090601f01602090048101928262002644576000855562002690565b82601f106200265f57805160ff191683800117855562002690565b8280016001018555821562002690579182015b828111156200268f57825182559160200191906001019062002672565b5b5090506200269f9190620026b1565b5090565b6127f7806200399a83390190565b5b80821115620026cc576000816000905550600101620026b2565b5090565b6000620026e7620026e18462003465565b6200343c565b9050828152602081018484840111156200270057600080fd5b6200270d848285620036f1565b509392505050565b60006200272c62002726846200349b565b6200343c565b9050828152602081018484840111156200274557600080fd5b62002752848285620036f1565b509392505050565b6000813590506200276b8162003906565b92915050565b600081519050620027828162003906565b92915050565b600081359050620027998162003920565b92915050565b600082601f830112620027b157600080fd5b8135620027c3848260208601620026d0565b91505092915050565b600081519050620027dd816200393a565b92915050565b600081519050620027f4816200394b565b92915050565b600082601f8301126200280c57600080fd5b81356200281e84826020860162002715565b91505092915050565b600081359050620028388162003965565b92915050565b6000815190506200284f8162003965565b92915050565b60008151905062002866816200397f565b92915050565b6000602082840312156200287f57600080fd5b60006200288f848285016200275a565b91505092915050565b600060208284031215620028ab57600080fd5b6000620028bb8482850162002771565b91505092915050565b60008060008060808587031215620028db57600080fd5b6000620028eb878288016200275a565b9450506020620028fe878288016200275a565b9350506040620029118782880162002827565b925050606085013567ffffffffffffffff8111156200292f57600080fd5b6200293d878288016200279f565b91505092959194509250565b600080604083850312156200295d57600080fd5b60006200296d858286016200275a565b9250506020620029808582860162002788565b9150509250929050565b600080600060608486031215620029a057600080fd5b6000620029b0868287016200275a565b9350506020620029c38682870162002827565b9250506040620029d6868287016200275a565b9150509250925092565b600080600080600080600080610100898b031215620029fe57600080fd5b600062002a0e8b828c016200275a565b985050602062002a218b828c0162002827565b975050604062002a348b828c016200275a565b965050606062002a478b828c0162002827565b955050608062002a5a8b828c0162002827565b94505060a062002a6d8b828c0162002827565b93505060c062002a808b828c0162002827565b92505060e062002a938b828c0162002827565b9150509295985092959890939650565b60006020828403121562002ab657600080fd5b600062002ac684828501620027cc565b91505092915050565b600080600080600060a0868803121562002ae857600080fd5b600086013567ffffffffffffffff81111562002b0357600080fd5b62002b1188828901620027fa565b955050602086013567ffffffffffffffff81111562002b2f57600080fd5b62002b3d88828901620027fa565b945050604086013567ffffffffffffffff81111562002b5b57600080fd5b62002b6988828901620027fa565b935050606086013567ffffffffffffffff81111562002b8757600080fd5b62002b9588828901620027fa565b925050608086013567ffffffffffffffff81111562002bb357600080fd5b62002bc188828901620027fa565b9150509295509295909350565b60006020828403121562002be157600080fd5b600062002bf18482850162002827565b91505092915050565b60006020828403121562002c0d57600080fd5b600062002c1d848285016200283e565b91505092915050565b6000806040838503121562002c3a57600080fd5b600062002c4a8582860162002827565b925050602062002c5d8582860162002827565b9150509250929050565b600080600080600060a0868803121562002c8057600080fd5b600062002c908882890162002855565b955050602062002ca388828901620027e3565b945050604062002cb6888289016200283e565b935050606062002cc9888289016200283e565b925050608062002cdc8882890162002855565b9150509295509295909350565b600062002cf7838362002d2f565b60208301905092915050565b600062002d11838362002ef8565b6101008301905092915050565b62002d29816200360b565b82525050565b62002d3a81620035f7565b82525050565b62002d4b81620035f7565b82525050565b600062002d5e82620034f1565b62002d6a81856200352c565b935062002d7783620034d1565b8060005b8381101562002dae57815162002d92888262002ce9565b975062002d9f8362003512565b92505060018101905062002d7b565b5085935050505092915050565b600062002dc882620034fc565b62002dd481856200353d565b935062002de183620034e1565b8060005b8381101562002e1857815162002dfc888262002d03565b975062002e09836200351f565b92505060018101905062002de5565b5085935050505092915050565b62002e30816200361f565b82525050565b62002e41816200362b565b82525050565b62002e5281620036a1565b82525050565b62002e6381620036c9565b82525050565b600062002e768262003507565b62002e8281856200354e565b935062002e9481856020860162003700565b62002e9f816200387d565b840191505092915050565b600062002eb96024836200354e565b915062002ec6826200388e565b604082019050919050565b600062002ee0601f836200354e565b915062002eed82620038dd565b602082019050919050565b6101008201600082015162002f1160008501826200305c565b50602082015162002f26602085018262002d2f565b50604082015162002f3b60408501826200305c565b50606082015162002f50606085018262002d1e565b50608082015162002f65608085018262002d1e565b5060a082015162002f7a60a08501826200305c565b5060c082015162002f8f60c085018262002d2f565b5060e082015162002fa460e08501826200305c565b50505050565b6101008201600082015162002fc360008501826200305c565b50602082015162002fd8602085018262002d2f565b50604082015162002fed60408501826200305c565b50606082015162003002606085018262002d1e565b50608082015162003017608085018262002d1e565b5060a08201516200302c60a08501826200305c565b5060c08201516200304160c085018262002d2f565b5060e08201516200305660e08501826200305c565b50505050565b620030678162003681565b82525050565b620030788162003681565b82525050565b600060208201905062003095600083018462002d40565b92915050565b6000606082019050620030b2600083018662002d40565b620030c1602083018562002d40565b620030d060408301846200306d565b949350505050565b600061012082019050620030f0600083018c62002d40565b620030ff602083018b62002d40565b6200310e604083018a6200306d565b6200311d60608301896200306d565b6200312c60808301886200306d565b6200313b60a08301876200306d565b6200314a60c083018662002d40565b6200315960e08301856200306d565b6200316961010083018462002e58565b9a9950505050505050505050565b60006040820190506200318e600083018562002d40565b6200319d60208301846200306d565b9392505050565b600060a082019050620031bb600083018862002d40565b620031ca60208301876200306d565b620031d9604083018662002d40565b620031e8606083018562002d40565b620031f760808301846200306d565b9695505050505050565b600060208201905081810360008301526200321d818462002d51565b905092915050565b6000602082019050818103600083015262003241818462002dbb565b905092915050565b600060208201905062003260600083018462002e25565b92915050565b60006020820190506200327d600083018462002e36565b92915050565b60006020820190506200329a600083018462002e47565b92915050565b600060e0820190508181036000830152620032bc818a62002e69565b90508181036020830152620032d2818962002e69565b90508181036040830152620032e8818862002e69565b90508181036060830152620032fe818762002e69565b9050818103608083015262003314818662002e69565b90506200332560a08301856200306d565b6200333460c083018462002d40565b98975050505050505050565b600060208201905081810360008301526200335b8162002eaa565b9050919050565b600060208201905081810360008301526200337d8162002ed1565b9050919050565b6000610100820190506200339c600083018462002faa565b92915050565b6000602082019050620033b960008301846200306d565b92915050565b600060e082019050620033d6600083018a6200306d565b620033e5602083018962002d40565b620033f460408301886200306d565b6200340360608301876200306d565b6200341260808301866200306d565b6200342160a08301856200306d565b6200343060c08301846200306d565b98975050505050505050565b6000620034486200345b565b90506200345682826200376c565b919050565b6000604051905090565b600067ffffffffffffffff8211156200348357620034826200384e565b5b6200348e826200387d565b9050602081019050919050565b600067ffffffffffffffff821115620034b957620034b86200384e565b5b620034c4826200387d565b9050602081019050919050565b6000819050602082019050919050565b6000819050602082019050919050565b600081519050919050565b600081519050919050565b600081519050919050565b6000602082019050919050565b6000602082019050919050565b600082825260208201905092915050565b600082825260208201905092915050565b600082825260208201905092915050565b60006200356c8262003681565b9150620035798362003681565b9250827fffffffffffffffffffffffffffffffffffffffffffffffffffffffffffffffff03821115620035b157620035b0620037f0565b5b828201905092915050565b6000620035c98262003681565b9150620035d68362003681565b925082821015620035ec57620035eb620037f0565b5b828203905092915050565b6000620036048262003661565b9050919050565b6000620036188262003661565b9050919050565b60008115159050919050565b60007fffffffff0000000000000000000000000000000000000000000000000000000082169050919050565b6000819050919050565b600073ffffffffffffffffffffffffffffffffffffffff82169050919050565b6000819050919050565b600069ffffffffffffffffffff82169050919050565b6000620036ae82620036b5565b9050919050565b6000620036c28262003661565b9050919050565b6000620036d682620036dd565b9050919050565b6000620036ea8262003661565b9050919050565b82818337600083830152505050565b60005b838110156200372057808201518184015260208101905062003703565b8381111562003730576000848401525b50505050565b600060028204905060018216806200374f57607f821691505b602082108114156200376657620037656200381f565b5b50919050565b62003777826200387d565b810181811067ffffffffffffffff821117156200379957620037986200384e565b5b80604052505050565b6000620037af8262003681565b91507fffffffffffffffffffffffffffffffffffffffffffffffffffffffffffffffff821415620037e557620037e4620037f0565b5b600182019050919050565b7f4e487b7100000000000000000000000000000000000000000000000000000000600052601160045260246000fd5b7f4e487b7100000000000000000000000000000000000000000000000000000000600052602260045260246000fd5b7f4e487b7100000000000000000000000000000000000000000000000000000000600052604160045260246000fd5b6000601f19601f8301169050919050565b7f5072696365206d75737420626520657175616c20746f206c697374696e67207060008201527f7269636500000000000000000000000000000000000000000000000000000000602082015250565b7f5265656e7472616e637947756172643a207265656e7472616e742063616c6c00600082015250565b6200391181620035f7565b81146200391d57600080fd5b50565b6200392b816200361f565b81146200393757600080fd5b50565b600481106200394857600080fd5b50565b620039568162003657565b81146200396257600080fd5b50565b620039708162003681565b81146200397c57600080fd5b50565b6200398a816200368b565b81146200399657600080fd5b5056fe60806040523480156200001157600080fd5b50604051620027f7380380620027f7833981810160405281019062000037919062000217565b600160008190555088600660006101000a81548173ffffffffffffffffffffffffffffffffffffffff021916908373ffffffffffffffffffffffffffffffffffffffff16021790555087600560006101000a81548173ffffffffffffffffffffffffffffffffffffffff021916908373ffffffffffffffffffffffffffffffffffffffff1602179055508642620000cf9190620002f0565b6001819055504260028190555085600b8190555084600c8190555083600d8190555082600e60006101000a81548173ffffffffffffffffffffffffffffffffffffffff021916908373ffffffffffffffffffffffffffffffffffffffff1602179055508160098190555087600460006101000a81548173ffffffffffffffffffffffffffffffffffffffff021916908373ffffffffffffffffffffffffffffffffffffffff16021790555080601060006101000a81548173ffffffffffffffffffffffffffffffffffffffff021916908373ffffffffffffffffffffffffffffffffffffffff160217905550600a6007819055505050505050505050506200041c565b600081519050620001e381620003ce565b92915050565b600081519050620001fa81620003e8565b92915050565b600081519050620002118162000402565b92915050565b60008060008060008060008060006101208a8c0312156200023757600080fd5b6000620002478c828d01620001d2565b99505060206200025a8c828d01620001d2565b98505060406200026d8c828d0162000200565b9750506060620002808c828d0162000200565b9650506080620002938c828d0162000200565b95505060a0620002a68c828d0162000200565b94505060c0620002b98c828d01620001d2565b93505060e0620002cc8c828d0162000200565b925050610100620002e08c828d01620001e9565b9150509295985092959850929598565b6000620002fd8262000395565b91506200030a8362000395565b9250827fffffffffffffffffffffffffffffffffffffffffffffffffffffffffffffffff038211156200034257620003416200039f565b5b828201905092915050565b60006200035a8262000375565b9050919050565b60006200036e826200034d565b9050919050565b600073ffffffffffffffffffffffffffffffffffffffff82169050919050565b6000819050919050565b7f4e487b7100000000000000000000000000000000000000000000000000000000600052601160045260246000fd5b620003d9816200034d565b8114620003e557600080fd5b50565b620003f38162000361565b8114620003ff57600080fd5b50565b6200040d8162000395565b81146200041957600080fd5b50565b6123cb806200042c6000396000f3fe6080604052600436106101665760003560e01c806378e97925116100d1578063b5bc95911161008a578063ecfc7ecc11610064578063ecfc7ecc14610518578063f1a9af8914610536578063f851a44014610561578063f9381d531461058c57610166565b8063b5bc959114610485578063bc3da535146104b0578063ca6158cb146104ed57610166565b806378e979251461038357806380135ae7146103ae57806380f55605146103d95780638afcb14d146104045780638fa8b7901461042f57806395ee12211461045a57610166565b80635bf8633a116101235780635bf8633a146102815780635e38c954146102ac578063618042f0146102d75780636cc6715114610302578063700cdab11461032d57806374b11d8a1461035857610166565b806308bfc3001461016b57806324600fc3146101965780633197cbb6146101c157806343bc1612146101ec5780634423c5f1146102175780634f50ef5314610255575b600080fd5b34801561017757600080fd5b506101806105b7565b60405161018d9190611f71565b60405180910390f35b3480156101a257600080fd5b506101ab61060f565b6040516101b89190611f3b565b60405180910390f35b3480156101cd57600080fd5b506101d6610a85565b6040516101e39190611fac565b60405180910390f35b3480156101f857600080fd5b50610201610a8b565b60405161020e9190611e52565b60405180910390f35b34801561022357600080fd5b5061023e60048036038101906102399190611c78565b610ab1565b60405161024c929190611e6d565b60405180910390f35b34801561026157600080fd5b5061026a610b05565b604051610278929190611f04565b60405180910390f35b34801561028d57600080fd5b50610296610d98565b6040516102a39190611e37565b60405180910390f35b3480156102b857600080fd5b506102c1610dbe565b6040516102ce9190611f3b565b60405180910390f35b3480156102e357600080fd5b506102ec6110c7565b6040516102f99190611fac565b60405180910390f35b34801561030e57600080fd5b506103176110cd565b6040516103249190611f3b565b60405180910390f35b34801561033957600080fd5b506103426110e0565b60405161034f9190611fac565b60405180910390f35b34801561036457600080fd5b5061036d6110e6565b60405161037a9190611fac565b60405180910390f35b34801561038f57600080fd5b506103986110ec565b6040516103a59190611fac565b60405180910390f35b3480156103ba57600080fd5b506103c36110f2565b6040516103d09190611f3b565b60405180910390f35b3480156103e557600080fd5b506103ee6113ef565b6040516103fb9190611f56565b60405180910390f35b34801561041057600080fd5b50610419611415565b6040516104269190611fac565b60405180910390f35b34801561043b57600080fd5b5061044461141b565b6040516104519190611f3b565b60405180910390f35b34801561046657600080fd5b5061046f611685565b60405161047c9190611f3b565b60405180910390f35b34801561049157600080fd5b5061049a611698565b6040516104a79190611e37565b60405180910390f35b3480156104bc57600080fd5b506104d760048036038101906104d29190611be9565b6116be565b6040516104e49190611fac565b60405180910390f35b3480156104f957600080fd5b506105026116d6565b60405161050f9190611fac565b60405180910390f35b6105206116dc565b60405161052d9190611f3b565b60405180910390f35b34801561054257600080fd5b5061054b611a7b565b6040516105589190611fac565b60405180910390f35b34801561056d57600080fd5b50610576611a81565b6040516105839190611e52565b60405180910390f35b34801561059857600080fd5b506105a1611aa7565b6040516105ae9190611f3b565b60405180910390f35b6000600a60009054906101000a900460ff16156105d7576001905061060c565b600a60019054906101000a900460ff16156105f5576003905061060c565b6001544210610607576002905061060c565b600090505b90565b600060026000541415610657576040517f08c379a000000000000000000000000000000000000000000000000000000000815260040161064e90611f8c565b60405180910390fd5b600260008190555060026003811115610699577f4e487b7100000000000000000000000000000000000000000000000000000000600052602160045260246000fd5b6106a16105b7565b60038111156106d9577f4e487b7100000000000000000000000000000000000000000000000000000000600052602160045260246000fd5b148061075b5750600380811115610719577f4e487b7100000000000000000000000000000000000000000000000000000000600052602160045260246000fd5b6107216105b7565b6003811115610759577f4e487b7100000000000000000000000000000000000000000000000000000000600052602160045260246000fd5b145b61076457600080fd5b600660009054906101000a900473ffffffffffffffffffffffffffffffffffffffff1673ffffffffffffffffffffffffffffffffffffffff163373ffffffffffffffffffffffffffffffffffffffff16148061080d5750600560009054906101000a900473ffffffffffffffffffffffffffffffffffffffff1673ffffffffffffffffffffffffffffffffffffffff163373ffffffffffffffffffffffffffffffffffffffff16145b61081657600080fd5b600080600e60009054906101000a900473ffffffffffffffffffffffffffffffffffffffff1673ffffffffffffffffffffffffffffffffffffffff16632a55205a601060009054906101000a900473ffffffffffffffffffffffffffffffffffffffff1673ffffffffffffffffffffffffffffffffffffffff166353dbceb16009546040518263ffffffff1660e01b81526004016108b49190611fac565b6101006040518083038186803b1580156108cd57600080fd5b505afa1580156108e1573d6000803e3d6000fd5b505050506040513d601f19601f820116820180604052508101906109059190611c4e565b604001516003546040518363ffffffff1660e01b8152600401610929929190611fc7565b604080518083038186803b15801561094057600080fd5b505afa158015610954573d6000803e3d6000fd5b505050506040513d601f19601f820116820180604052508101906109789190611c12565b91509150600660009054906101000a900473ffffffffffffffffffffffffffffffffffffffff1673ffffffffffffffffffffffffffffffffffffffff166108fc826003546109c691906120ee565b9081150290604051600060405180830381858888f193505050501580156109f1573d6000803e3d6000fd5b508173ffffffffffffffffffffffffffffffffffffffff166108fc829081150290604051600060405180830381858888f19350505050158015610a38573d6000803e3d6000fd5b507f21901fa892c430ea8bd38b9390225ac8e67eac75ee10ffba16feefc539a288f933600354604051610a6c929190611e6d565b60405180910390a1600192505050600160008190555090565b60015481565b600560009054906101000a900473ffffffffffffffffffffffffffffffffffffffff1681565b60088181548110610ac157600080fd5b90600052602060002090600202016000915090508060000160009054906101000a900473ffffffffffffffffffffffffffffffffffffffff16908060010154905082565b606080600060088054905067ffffffffffffffff811115610b4f577f4e487b7100000000000000000000000000000000000000000000000000000000600052604160045260246000fd5b604051908082528060200260200182016040528015610b7d5781602001602082028036833780820191505090505b509050600060088054905067ffffffffffffffff811115610bc7577f4e487b7100000000000000000000000000000000000000000000000000000000600052604160045260246000fd5b604051908082528060200260200182016040528015610bf55781602001602082028036833780820191505090505b50905060005b600880549050811015610d8b5760088181548110610c42577f4e487b7100000000000000000000000000000000000000000000000000000000600052603260045260246000fd5b906000526020600020906002020160000160009054906101000a900473ffffffffffffffffffffffffffffffffffffffff16838281518110610cad577f4e487b7100000000000000000000000000000000000000000000000000000000600052603260045260246000fd5b602002602001019073ffffffffffffffffffffffffffffffffffffffff16908173ffffffffffffffffffffffffffffffffffffffff168152505060088181548110610d21577f4e487b7100000000000000000000000000000000000000000000000000000000600052603260045260246000fd5b906000526020600020906002020160010154828281518110610d6c577f4e487b7100000000000000000000000000000000000000000000000000000000600052603260045260246000fd5b6020026020010181815250508080610d839061222c565b915050610bfb565b5081819350935050509091565b600e60009054906101000a900473ffffffffffffffffffffffffffffffffffffffff1681565b600060026000541415610e06576040517f08c379a0000000000000000000000000000000000000000000000000000000008152600401610dfd90611f8c565b60405180910390fd5b600260008190555060026003811115610e48577f4e487b7100000000000000000000000000000000000000000000000000000000600052602160045260246000fd5b610e506105b7565b6003811115610e88577f4e487b7100000000000000000000000000000000000000000000000000000000600052602160045260246000fd5b1480610f0a5750600380811115610ec8577f4e487b7100000000000000000000000000000000000000000000000000000000600052602160045260246000fd5b610ed06105b7565b6003811115610f08577f4e487b7100000000000000000000000000000000000000000000000000000000600052602160045260246000fd5b145b610f1357600080fd5b600460009054906101000a900473ffffffffffffffffffffffffffffffffffffffff1673ffffffffffffffffffffffffffffffffffffffff163373ffffffffffffffffffffffffffffffffffffffff1614610f6d57600080fd5b601060009054906101000a900473ffffffffffffffffffffffffffffffffffffffff1673ffffffffffffffffffffffffffffffffffffffff1663d1d78ac2600e60009054906101000a900473ffffffffffffffffffffffffffffffffffffffff16600954600460009054906101000a900473ffffffffffffffffffffffffffffffffffffffff166040518463ffffffff1660e01b815260040161101293929190611e96565b600060405180830381600087803b15801561102c57600080fd5b505af1158015611040573d6000803e3d6000fd5b505050506001601060146101000a81548160ff0219169083151502179055507f3ddd83255e383c22f9818cf93cc1f079ceeb0ef6dbd99b38838f1b951f9e0d77600460009054906101000a900473ffffffffffffffffffffffffffffffffffffffff166040516110b09190611e37565b60405180910390a160019050600160008190555090565b60075481565b601060149054906101000a900460ff1681565b600c5481565b60035481565b60025481565b60006002600054141561113a576040517f08c379a000000000000000000000000000000000000000000000000000000000815260040161113190611f8c565b60405180910390fd5b60026000819055506002600381111561117c577f4e487b7100000000000000000000000000000000000000000000000000000000600052602160045260246000fd5b6111846105b7565b60038111156111bc577f4e487b7100000000000000000000000000000000000000000000000000000000600052602160045260246000fd5b148061123e57506003808111156111fc577f4e487b7100000000000000000000000000000000000000000000000000000000600052602160045260246000fd5b6112046105b7565b600381111561123c577f4e487b7100000000000000000000000000000000000000000000000000000000600052602160045260246000fd5b145b806112c057506001600381111561127e577f4e487b7100000000000000000000000000000000000000000000000000000000600052602160045260246000fd5b6112866105b7565b60038111156112be577f4e487b7100000000000000000000000000000000000000000000000000000000600052602160045260246000fd5b145b6112c957600080fd5b6000600f60003373ffffffffffffffffffffffffffffffffffffffff1673ffffffffffffffffffffffffffffffffffffffff168152602001908152602001600020541161131557600080fd5b3373ffffffffffffffffffffffffffffffffffffffff166108fc600f60003373ffffffffffffffffffffffffffffffffffffffff1673ffffffffffffffffffffffffffffffffffffffff168152602001908152602001600020549081150290604051600060405180830381858888f1935050505015801561139a573d6000803e3d6000fd5b506000600f60003373ffffffffffffffffffffffffffffffffffffffff1673ffffffffffffffffffffffffffffffffffffffff1681526020019081526020016000208190555060019050600160008190555090565b601060009054906101000a900473ffffffffffffffffffffffffffffffffffffffff1681565b600b5481565b600060026000541415611463576040517f08c379a000000000000000000000000000000000000000000000000000000000815260040161145a90611f8c565b60405180910390fd5b6002600081905550600660009054906101000a900473ffffffffffffffffffffffffffffffffffffffff1673ffffffffffffffffffffffffffffffffffffffff163373ffffffffffffffffffffffffffffffffffffffff16146114c557600080fd5b600060038111156114ff577f4e487b7100000000000000000000000000000000000000000000000000000000600052602160045260246000fd5b6115076105b7565b600381111561153f577f4e487b7100000000000000000000000000000000000000000000000000000000600052602160045260246000fd5b1461154957600080fd5b60006003541461155857600080fd5b6001600a60006101000a81548160ff021916908315150217905550601060009054906101000a900473ffffffffffffffffffffffffffffffffffffffff1673ffffffffffffffffffffffffffffffffffffffff1663d1d78ac2600e60009054906101000a900473ffffffffffffffffffffffffffffffffffffffff16600954600560009054906101000a900473ffffffffffffffffffffffffffffffffffffffff166040518463ffffffff1660e01b815260040161161893929190611ecd565b600060405180830381600087803b15801561163257600080fd5b505af1158015611646573d6000803e3d6000fd5b505050507f3edab9d02702b82c68bc3a966d302af41abe4f3d8e2408b27b94e5f9bf2d722c60405160405180910390a160019050600160008190555090565b600a60009054906101000a900460ff1681565b600460009054906101000a900473ffffffffffffffffffffffffffffffffffffffff1681565b600f6020528060005260406000206000915090505481565b60095481565b600060026000541415611724576040517f08c379a000000000000000000000000000000000000000000000000000000000815260040161171b90611f8c565b60405180910390fd5b6002600081905550600560009054906101000a900473ffffffffffffffffffffffffffffffffffffffff1673ffffffffffffffffffffffffffffffffffffffff163373ffffffffffffffffffffffffffffffffffffffff16141580156117d85750600660009054906101000a900473ffffffffffffffffffffffffffffffffffffffff1673ffffffffffffffffffffffffffffffffffffffff163373ffffffffffffffffffffffffffffffffffffffff1614155b6117e157600080fd5b6000600381111561181b577f4e487b7100000000000000000000000000000000000000000000000000000000600052602160045260246000fd5b6118236105b7565b600381111561185b577f4e487b7100000000000000000000000000000000000000000000000000000000600052602160045260246000fd5b1461186557600080fd5b600d54341161187357600080fd5b600b546003546118839190612098565b341161188e57600080fd5b6000600460009054906101000a900473ffffffffffffffffffffffffffffffffffffffff169050600060035490503460038190555033600460006101000a81548173ffffffffffffffffffffffffffffffffffffffff021916908373ffffffffffffffffffffffffffffffffffffffff160217905550600c543410611929576001600a60016101000a81548160ff0219169083151502179055505b600860405180604001604052803373ffffffffffffffffffffffffffffffffffffffff16815260200134815250908060018154018082558091505060019003906000526020600020906002020160009091909190915060008201518160000160006101000a81548173ffffffffffffffffffffffffffffffffffffffff021916908373ffffffffffffffffffffffffffffffffffffffff16021790555060208201518160010155505060008114611a315780600f60008473ffffffffffffffffffffffffffffffffffffffff1673ffffffffffffffffffffffffffffffffffffffff1681526020019081526020016000206000828254611a299190612098565b925050819055505b7fdd0b6c6a77960e2066c96171b4d7ac9e8b4c184011f38544afa36a5bb63ec59f3334604051611a62929190611e6d565b60405180910390a1600192505050600160008190555090565b600d5481565b600660009054906101000a900473ffffffffffffffffffffffffffffffffffffffff1681565b600a60019054906101000a900460ff1681565b600081359050611ac981612350565b92915050565b600081519050611ade81612350565b92915050565b600081519050611af381612367565b92915050565b60006101008284031215611b0c57600080fd5b611b17610100611ff0565b90506000611b2784828501611bd4565b6000830152506020611b3b84828501611acf565b6020830152506040611b4f84828501611bd4565b6040830152506060611b6384828501611ae4565b6060830152506080611b7784828501611ae4565b60808301525060a0611b8b84828501611bd4565b60a08301525060c0611b9f84828501611acf565b60c08301525060e0611bb384828501611bd4565b60e08301525092915050565b600081359050611bce8161237e565b92915050565b600081519050611be38161237e565b92915050565b600060208284031215611bfb57600080fd5b6000611c0984828501611aba565b91505092915050565b60008060408385031215611c2557600080fd5b6000611c3385828601611acf565b9250506020611c4485828601611bd4565b9150509250929050565b60006101008284031215611c6157600080fd5b6000611c6f84828501611af9565b91505092915050565b600060208284031215611c8a57600080fd5b6000611c9884828501611bbf565b91505092915050565b6000611cad8383611cef565b60208301905092915050565b6000611cc58383611e19565b60208301905092915050565b611cda8161218f565b82525050565b611ce981612134565b82525050565b611cf881612122565b82525050565b611d0781612122565b82525050565b6000611d1882612035565b611d228185612065565b9350611d2d83612015565b8060005b83811015611d5e578151611d458882611ca1565b9750611d508361204b565b925050600181019050611d31565b5085935050505092915050565b6000611d7682612040565b611d808185612076565b9350611d8b83612025565b8060005b83811015611dbc578151611da38882611cb9565b9750611dae83612058565b925050600181019050611d8f565b5085935050505092915050565b611dd281612146565b82525050565b611de1816121a1565b82525050565b611df0816121c5565b82525050565b6000611e03601f83612087565b9150611e0e82612313565b602082019050919050565b611e2281612185565b82525050565b611e3181612185565b82525050565b6000602082019050611e4c6000830184611cfe565b92915050565b6000602082019050611e676000830184611ce0565b92915050565b6000604082019050611e826000830185611cfe565b611e8f6020830184611e28565b9392505050565b6000606082019050611eab6000830186611cfe565b611eb86020830185611e28565b611ec56040830184611cfe565b949350505050565b6000606082019050611ee26000830186611cfe565b611eef6020830185611e28565b611efc6040830184611cd1565b949350505050565b60006040820190508181036000830152611f1e8185611d0d565b90508181036020830152611f328184611d6b565b90509392505050565b6000602082019050611f506000830184611dc9565b92915050565b6000602082019050611f6b6000830184611dd8565b92915050565b6000602082019050611f866000830184611de7565b92915050565b60006020820190508181036000830152611fa581611df6565b9050919050565b6000602082019050611fc16000830184611e28565b92915050565b6000604082019050611fdc6000830185611e28565b611fe96020830184611e28565b9392505050565b6000611ffa61200b565b905061200682826121fb565b919050565b6000604051905090565b6000819050602082019050919050565b6000819050602082019050919050565b600081519050919050565b600081519050919050565b6000602082019050919050565b6000602082019050919050565b600082825260208201905092915050565b600082825260208201905092915050565b600082825260208201905092915050565b60006120a382612185565b91506120ae83612185565b9250827fffffffffffffffffffffffffffffffffffffffffffffffffffffffffffffffff038211156120e3576120e2612275565b5b828201905092915050565b60006120f982612185565b915061210483612185565b92508282101561211757612116612275565b5b828203905092915050565b600061212d82612165565b9050919050565b600061213f82612165565b9050919050565b60008115159050919050565b60008190506121608261233c565b919050565b600073ffffffffffffffffffffffffffffffffffffffff82169050919050565b6000819050919050565b600061219a826121d7565b9050919050565b60006121ac826121b3565b9050919050565b60006121be82612165565b9050919050565b60006121d082612152565b9050919050565b60006121e2826121e9565b9050919050565b60006121f482612165565b9050919050565b61220482612302565b810181811067ffffffffffffffff82111715612223576122226122d3565b5b80604052505050565b600061223782612185565b91507fffffffffffffffffffffffffffffffffffffffffffffffffffffffffffffffff82141561226a57612269612275565b5b600182019050919050565b7f4e487b7100000000000000000000000000000000000000000000000000000000600052601160045260246000fd5b7f4e487b7100000000000000000000000000000000000000000000000000000000600052602160045260246000fd5b7f4e487b7100000000000000000000000000000000000000000000000000000000600052604160045260246000fd5b6000601f19601f8301169050919050565b7f5265656e7472616e637947756172643a207265656e7472616e742063616c6c00600082015250565b6004811061234d5761234c6122a4565b5b50565b61235981612122565b811461236457600080fd5b50565b61237081612134565b811461237b57600080fd5b50565b61238781612185565b811461239257600080fd5b5056fea2646970667358221220f5cf7f03ab8123cd434219f971ad8fbb255f064ebf8853493e50199ad975ec5164736f6c63430008010033a26469706673582212200c178b50eaa1d5bdefe11a90532e68f973e1a213f61e119772126f59bc03ef1864736f6c63430008010033",
  "linkReferences": {},
  "deployedLinkReferences": {}
}